{
  "contractName": "WaffleMaker",
  "abi": [
    {
      "inputs": [],
      "stateMutability": "nonpayable",
      "type": "constructor"
    },
    {
      "inputs": [],
      "name": "admin",
      "outputs": [
        {
          "internalType": "address",
          "name": "",
          "type": "address"
        }
      ],
      "stateMutability": "view",
      "type": "function",
      "constant": true
    },
    {
      "inputs": [
        {
          "internalType": "uint256",
          "name": "",
          "type": "uint256"
        }
      ],
      "name": "bases",
      "outputs": [
        {
          "internalType": "string",
          "name": "name",
          "type": "string"
        },
        {
          "internalType": "uint256",
          "name": "price",
          "type": "uint256"
        }
      ],
      "stateMutability": "view",
      "type": "function",
      "constant": true
    },
    {
      "inputs": [
        {
          "internalType": "uint256",
          "name": "",
          "type": "uint256"
        }
      ],
      "name": "extras",
      "outputs": [
        {
          "internalType": "string",
          "name": "name",
          "type": "string"
        },
        {
          "internalType": "uint256",
          "name": "price",
          "type": "uint256"
        }
      ],
      "stateMutability": "view",
      "type": "function",
      "constant": true
    },
    {
      "inputs": [
        {
          "internalType": "uint256",
          "name": "",
          "type": "uint256"
        }
      ],
      "name": "plates",
      "outputs": [
        {
          "internalType": "string",
          "name": "name",
          "type": "string"
        },
        {
          "internalType": "uint256",
          "name": "price",
          "type": "uint256"
        }
      ],
      "stateMutability": "view",
      "type": "function",
      "constant": true
    },
    {
      "inputs": [
        {
          "internalType": "uint256",
          "name": "",
          "type": "uint256"
        }
      ],
      "name": "toppings",
      "outputs": [
        {
          "internalType": "string",
          "name": "name",
          "type": "string"
        },
        {
          "internalType": "uint256",
          "name": "price",
          "type": "uint256"
        }
      ],
      "stateMutability": "view",
      "type": "function",
      "constant": true
    },
    {
      "inputs": [],
      "name": "createWaffle",
      "outputs": [],
      "stateMutability": "nonpayable",
      "type": "function"
    },
    {
      "inputs": [
        {
          "internalType": "uint256",
          "name": "waffleId",
          "type": "uint256"
        }
      ],
      "name": "bakeWaffleLayer",
      "outputs": [],
      "stateMutability": "nonpayable",
      "type": "function"
    },
    {
      "inputs": [
        {
          "internalType": "uint256",
          "name": "waffleId",
          "type": "uint256"
        },
        {
          "internalType": "uint256",
          "name": "base",
          "type": "uint256"
        },
        {
          "internalType": "uint256",
          "name": "topping",
          "type": "uint256"
        },
        {
          "internalType": "uint256",
          "name": "plate",
          "type": "uint256"
        },
        {
          "internalType": "uint256",
          "name": "extra",
          "type": "uint256"
        }
      ],
      "name": "customizeWaffleLayer",
      "outputs": [],
      "stateMutability": "nonpayable",
      "type": "function"
    },
    {
      "inputs": [
        {
          "internalType": "uint256",
          "name": "waffleId",
          "type": "uint256"
        }
      ],
      "name": "addWaffleIngredient",
      "outputs": [],
      "stateMutability": "nonpayable",
      "type": "function"
    },
    {
      "inputs": [
        {
          "internalType": "uint256",
          "name": "waffleId",
          "type": "uint256"
        }
      ],
      "name": "voteWaffle",
      "outputs": [],
      "stateMutability": "nonpayable",
      "type": "function"
    },
    {
      "inputs": [],
      "name": "concludeCompetition",
      "outputs": [],
      "stateMutability": "nonpayable",
      "type": "function"
    },
    {
      "inputs": [
        {
          "internalType": "uint256",
          "name": "waffleId",
          "type": "uint256"
        }
      ],
      "name": "getWaffleInfo",
      "outputs": [
        {
          "internalType": "address",
          "name": "owner",
          "type": "address"
        },
        {
          "internalType": "string",
          "name": "name",
          "type": "string"
        },
        {
          "internalType": "string",
          "name": "description",
          "type": "string"
        },
        {
          "internalType": "uint256",
          "name": "votes",
          "type": "uint256"
        },
        {
          "internalType": "uint256",
          "name": "plate",
          "type": "uint256"
        },
        {
          "internalType": "uint256",
          "name": "extra",
          "type": "uint256"
        },
        {
          "components": [
            {
              "internalType": "uint256",
              "name": "base",
              "type": "uint256"
            },
            {
              "internalType": "uint256",
              "name": "topping",
              "type": "uint256"
            },
            {
              "internalType": "bool",
              "name": "customized",
              "type": "bool"
            }
          ],
          "internalType": "struct WaffleMaker.WaffleLayer[]",
          "name": "layers",
          "type": "tuple[]"
        }
      ],
      "stateMutability": "view",
      "type": "function",
      "constant": true
    },
    {
      "inputs": [],
      "name": "getCompetitionEndTimestamp",
      "outputs": [
        {
          "internalType": "uint256",
          "name": "",
          "type": "uint256"
        }
      ],
      "stateMutability": "view",
      "type": "function",
      "constant": true
    }
  ],
  "bytecode": "0x60806040523480156200001157600080fd5b50336000806101000a81548173ffffffffffffffffffffffffffffffffffffffff021916908373ffffffffffffffffffffffffffffffffffffffff16021790555042600181905550600260405180604001604052806040518060400160405280600581526020017f456d7074790000000000000000000000000000000000000000000000000000008152508152602001600081525090806001815401808255809150506001900390600052602060002090600202016000909190919091506000820151816000019080519060200190620000ed929190620002e3565b50602082015181600101555050600360405180604001604052806040518060400160405280600581526020017f456d70747900000000000000000000000000000000000000000000000000000081525081526020016000815250908060018154018082558091505060019003906000526020600020906002020160009091909190915060008201518160000190805190602001906200018e929190620002e3565b50602082015181600101555050600460405180604001604052806040518060400160405280600581526020017f456d70747900000000000000000000000000000000000000000000000000000081525081526020016000815250908060018154018082558091505060019003906000526020600020906002020160009091909190915060008201518160000190805190602001906200022f929190620002e3565b50602082015181600101555050600560405180604001604052806040518060400160405280600581526020017f456d7074790000000000000000000000000000000000000000000000000000008152508152602001600081525090806001815401808255809150506001900390600052602060002090600202016000909190919091506000820151816000019080519060200190620002d0929190620002e3565b5060208201518160010155505062000389565b828054600181600116156101000203166002900490600052602060002090601f016020900481019282601f106200032657805160ff191683800117855562000357565b8280016001018555821562000357579182015b828111156200035657825182559160200191906001019062000339565b5b5090506200036691906200036a565b5090565b5b80821115620003855760008160009055506001016200036b565b5090565b6122f280620003996000396000f3fe608060405234801561001057600080fd5b50600436106100cf5760003560e01c80639531c82f1161008c578063d01fa60c11610066578063d01fa60c14610219578063d03a322c1461024a578063e62f9eb914610266578063f851a44014610270576100cf565b80639531c82f146101ab578063971c7f5a146101e1578063aa0282ec146101fd576100cf565b80630cacbec8146100d45780630f3b22c0146100de578063155caa321461010f5780635468bc2f1461012b578063664666731461015c578063720418481461017a575b600080fd5b6100dc61028e565b005b6100f860048036038101906100f39190611819565b6104eb565b604051610106929190611fd9565b60405180910390f35b61012960048036038101906101249190611819565b6105b4565b005b61014560048036038101906101409190611819565b6105b7565b604051610153929190611fd9565b60405180910390f35b610164610680565b60405161017191906121a9565b60405180910390f35b610194600480360381019061018f9190611819565b61068f565b6040516101a2929190611fd9565b60405180910390f35b6101c560048036038101906101c09190611819565b610758565b6040516101d89796959493929190611f55565b60405180910390f35b6101fb60048036038101906101f69190611819565b610ad9565b005b61021760048036038101906102129190611819565b610de0565b005b610233600480360381019061022e9190611819565b610f0d565b604051610241929190611fd9565b60405180910390f35b610264600480360381019061025f9190611842565b610fd6565b005b61026e6112c9565b005b61027861137d565b6040516102859190611f3a565b60405180910390f35b6102966113a1565b156102d6576040517f08c379a00000000000000000000000000000000000000000000000000000000081526004016102cd90612009565b60405180910390fd5b60066040518061010001604052803373ffffffffffffffffffffffffffffffffffffffff1681526020016000815260200142815260200160405180602001604052806000815250815260200160405180602001604052806000815250815260200160008152602001600081526020016000815250908060018154018082558091505060019003906000526020600020906009020160009091909190915060008201518160000160006101000a81548173ffffffffffffffffffffffffffffffffffffffff021916908373ffffffffffffffffffffffffffffffffffffffff160217905550602082015181600101556040820151816002015560608201518160030190805190602001906103ea9291906116e9565b5060808201518160040190805190602001906104079291906116e9565b5060a0820151816005015560c0820151816006015560e0820151816008015550506104396001600680549050036113b8565b600160068054905003600a60003373ffffffffffffffffffffffffffffffffffffffff1673ffffffffffffffffffffffffffffffffffffffff1681526020019081526020016000206000016000600a60003373ffffffffffffffffffffffffffffffffffffffff1673ffffffffffffffffffffffffffffffffffffffff168152602001908152602001600020600101600081548092919060010191905055815260200190815260200160002081905550565b600281815481106104f857fe5b9060005260206000209060020201600091509050806000018054600181600116156101000203166002900480601f0160208091040260200160405190810160405280929190818152602001828054600181600116156101000203166002900480156105a45780601f10610579576101008083540402835291602001916105a4565b820191906000526020600020905b81548152906001019060200180831161058757829003601f168201915b5050505050908060010154905082565b50565b600581815481106105c457fe5b9060005260206000209060020201600091509050806000018054600181600116156101000203166002900480601f0160208091040260200160405190810160405280929190818152602001828054600181600116156101000203166002900480156106705780601f1061064557610100808354040283529160200191610670565b820191906000526020600020905b81548152906001019060200180831161065357829003601f168201915b5050505050908060010154905082565b600062278d0060015401905090565b6003818154811061069c57fe5b9060005260206000209060020201600091509050806000018054600181600116156101000203166002900480601f0160208091040260200160405190810160405280929190818152602001828054600181600116156101000203166002900480156107485780601f1061071d57610100808354040283529160200191610748565b820191906000526020600020905b81548152906001019060200180831161072b57829003601f168201915b5050505050908060010154905082565b60006060806000806000606060068054905088106107ab576040517f08c379a00000000000000000000000000000000000000000000000000000000081526004016107a2906120a9565b60405180910390fd5b6107b3611769565b600689815481106107c057fe5b9060005260206000209060090201604051806101000160405290816000820160009054906101000a900473ffffffffffffffffffffffffffffffffffffffff1673ffffffffffffffffffffffffffffffffffffffff1673ffffffffffffffffffffffffffffffffffffffff1681526020016001820154815260200160028201548152602001600382018054600181600116156101000203166002900480601f0160208091040260200160405190810160405280929190818152602001828054600181600116156101000203166002900480156108dd5780601f106108b2576101008083540402835291602001916108dd565b820191906000526020600020905b8154815290600101906020018083116108c057829003601f168201915b50505050508152602001600482018054600181600116156101000203166002900480601f01602080910402602001604051908101604052809291908181526020018280546001816001161561010002031660029004801561097f5780601f106109545761010080835404028352916020019161097f565b820191906000526020600020905b81548152906001019060200180831161096257829003601f168201915b505050505081526020016005820154815260200160068201548152602001600882015481525050905060608160e0015167ffffffffffffffff811180156109c557600080fd5b506040519080825280602002602001820160405280156109ff57816020015b6109ec6117c4565b8152602001906001900390816109e45790505b50905060005b8260e00151811015610a9e5760068b81548110610a1e57fe5b9060005260206000209060090201600701600082815260200190815260200160002060405180606001604052908160008201548152602001600182015481526020016002820160009054906101000a900460ff161515151581525050828281518110610a8657fe5b60200260200101819052508080600101915050610a05565b5081600001518260600151836080015184602001518560a001518660c001518698509850985098509850985098505050919395979092949650565b610ae16113a1565b15610b21576040517f08c379a0000000000000000000000000000000000000000000000000000000008152600401610b1890612049565b60405180910390fd5b610b2a816114ce565b610b69576040517f08c379a0000000000000000000000000000000000000000000000000000000008152600401610b60906120a9565b60405180910390fd5b6000600a60003373ffffffffffffffffffffffffffffffffffffffff1673ffffffffffffffffffffffffffffffffffffffff1681526020019081526020016000206001015411610bee576040517f08c379a0000000000000000000000000000000000000000000000000000000008152600401610be590612129565b60405180910390fd5b6003600a60003373ffffffffffffffffffffffffffffffffffffffff1673ffffffffffffffffffffffffffffffffffffffff1681526020019081526020016000206003015410610c73576040517f08c379a0000000000000000000000000000000000000000000000000000000008152600401610c6a90612169565b60405180910390fd5b610c7d33826114df565b15610cbd576040517f08c379a0000000000000000000000000000000000000000000000000000000008152600401610cb490612029565b60405180910390fd5b610cc733826115af565b15610d07576040517f08c379a0000000000000000000000000000000000000000000000000000000008152600401610cfe906120e9565b60405180910390fd5b60068181548110610d1457fe5b90600052602060002090600902016001016000815480929190600101919050555080600a60003373ffffffffffffffffffffffffffffffffffffffff1673ffffffffffffffffffffffffffffffffffffffff1681526020019081526020016000206002016000600a60003373ffffffffffffffffffffffffffffffffffffffff1673ffffffffffffffffffffffffffffffffffffffff16815260200190815260200160002060030160008154809291906001019190505581526020019081526020016000208190555050565b610de86113a1565b15610e28576040517f08c379a0000000000000000000000000000000000000000000000000000000008152600401610e1f90612089565b60405180910390fd5b610e31816114ce565b610e70576040517f08c379a0000000000000000000000000000000000000000000000000000000008152600401610e67906120a9565b60405180910390fd5b610e7a33826114df565b610eb9576040517f08c379a0000000000000000000000000000000000000000000000000000000008152600401610eb090612189565b60405180910390fd5b610ec28161167f565b610f01576040517f08c379a0000000000000000000000000000000000000000000000000000000008152600401610ef890612109565b60405180910390fd5b610f0a816113b8565b50565b60048181548110610f1a57fe5b9060005260206000209060020201600091509050806000018054600181600116156101000203166002900480601f016020809104026020016040519081016040528092919081815260200182805460018160011615610100020316600290048015610fc65780601f10610f9b57610100808354040283529160200191610fc6565b820191906000526020600020905b815481529060010190602001808311610fa957829003601f168201915b5050505050908060010154905082565b610fde6113a1565b1561101e576040517f08c379a000000000000000000000000000000000000000000000000000000000815260040161101590612089565b60405180910390fd5b611027856114ce565b611066576040517f08c379a000000000000000000000000000000000000000000000000000000000815260040161105d906120a9565b60405180910390fd5b61107033866114df565b6110af576040517f08c379a00000000000000000000000000000000000000000000000000000000081526004016110a690612189565b60405180910390fd5b6110b88561167f565b156110f8576040517f08c379a00000000000000000000000000000000000000000000000000000000081526004016110ef90612109565b60405180910390fd5b60016006868154811061110757fe5b9060005260206000209060090201600801541161116557816006868154811061112c57fe5b906000526020600020906009020160050181905550806006868154811061114f57fe5b9060005260206000209060090201600601819055505b600060016006878154811061117657fe5b906000526020600020906009020160080154039050846006878154811061119957fe5b906000526020600020906009020160070160008381526020019081526020016000206000018190555083600687815481106111d057fe5b906000526020600020906009020160070160008381526020019081526020016000206001018190555060016006878154811061120857fe5b9060005260206000209060090201600701600083815260200190815260200160002060020160006101000a81548160ff021916908315150217905550426006878154811061125257fe5b906000526020600020906009020160020181905550600760016003811061127557fe5b0154600760006003811061128557fe5b0181905550600760026003811061129857fe5b015460076001600381106112a857fe5b01819055508560076002600381106112bc57fe5b0181905550505050505050565b6112d16113a1565b611310576040517f08c379a000000000000000000000000000000000000000000000000000000000815260040161130790612149565b60405180910390fd5b600b60009054906101000a900460ff1615611360576040517f08c379a000000000000000000000000000000000000000000000000000000000815260040161135790612069565b60405180910390fd5b6001600b60006101000a81548160ff021916908315150217905550565b60008054906101000a900473ffffffffffffffffffffffffffffffffffffffff1681565b60008062278d006001540190508042101591505090565b6005600682815481106113c757fe5b90600052602060002090600902016008015410611419576040517f08c379a0000000000000000000000000000000000000000000000000000000008152600401611410906120c9565b60405180910390fd5b60405180606001604052806000815260200160008152602001600015158152506006828154811061144657fe5b906000526020600020906009020160070160006006848154811061146657fe5b90600052602060002090600902016008016000815480929190600101919050558152602001908152602001600020600082015181600001556020820151816001015560408201518160020160006101000a81548160ff02191690831515021790555090505050565b600060068054905082109050919050565b600080600090505b600a60008573ffffffffffffffffffffffffffffffffffffffff1673ffffffffffffffffffffffffffffffffffffffff168152602001908152602001600020600101548110156115a35782600a60008673ffffffffffffffffffffffffffffffffffffffff1673ffffffffffffffffffffffffffffffffffffffff16815260200190815260200160002060000160008381526020019081526020016000205414156115965760019150506115a9565b80806001019150506114e7565b50600090505b92915050565b600080600090505b600a60008573ffffffffffffffffffffffffffffffffffffffff1673ffffffffffffffffffffffffffffffffffffffff168152602001908152602001600020600301548110156116735782600a60008673ffffffffffffffffffffffffffffffffffffffff1673ffffffffffffffffffffffffffffffffffffffff1681526020019081526020016000206002016000838152602001908152602001600020541415611666576001915050611679565b80806001019150506115b7565b50600090505b92915050565b60006006828154811061168e57fe5b906000526020600020906009020160070160006001600685815481106116b057fe5b90600052602060002090600902016008015403815260200190815260200160002060020160009054906101000a900460ff169050919050565b828054600181600116156101000203166002900490600052602060002090601f016020900481019282601f1061172a57805160ff1916838001178555611758565b82800160010185558215611758579182015b8281111561175757825182559160200191906001019061173c565b5b50905061176591906117e7565b5090565b604051806101000160405280600073ffffffffffffffffffffffffffffffffffffffff168152602001600081526020016000815260200160608152602001606081526020016000815260200160008152602001600081525090565b604051806060016040528060008152602001600081526020016000151581525090565b5b808211156118005760008160009055506001016117e8565b5090565b600081359050611813816122a5565b92915050565b60006020828403121561182b57600080fd5b600061183984828501611804565b91505092915050565b600080600080600060a0868803121561185a57600080fd5b600061186888828901611804565b955050602061187988828901611804565b945050604061188a88828901611804565b935050606061189b88828901611804565b92505060806118ac88828901611804565b9150509295509295909350565b60006118c58383611eda565b60608301905092915050565b6118da81612219565b82525050565b60006118eb826121d4565b6118f581856121f7565b9350611900836121c4565b8060005b8381101561193157815161191888826118b9565b9750611923836121ea565b925050600181019050611904565b5085935050505092915050565b6119478161222b565b82525050565b6000611958826121df565b6119628185612208565b9350611972818560208601612261565b61197b81612294565b840191505092915050565b6000611993603683612208565b91507f43616e6e6f74206372656174652061206e657720776166666c6520616674657260008301527f20636f6d7065746974696f6e2068617320656e646564000000000000000000006020830152604082019050919050565b60006119f9602283612208565b91507f596f752063616e277420766f746520666f7220796f7572206f776e207761666660008301527f6c650000000000000000000000000000000000000000000000000000000000006020830152604082019050919050565b6000611a5f603e83612208565b91507f596f752063616e6e6f742063617374206120766f7465206f6e2061207761666660008301527f6c6520616674657220636f6d7065746974696f6e2068617320656e64656400006020830152604082019050919050565b6000611ac5602683612208565b91507f436f6d7065746974696f6e2068617320616c7265616479206265656e20636f6e60008301527f636c7564656400000000000000000000000000000000000000000000000000006020830152604082019050919050565b6000611b2b603683612208565b91507f596f752063616e6e6f74206d6f64696679206120776166666c6520616674657260008301527f20636f6d7065746974696f6e2068617320656e646564000000000000000000006020830152604082019050919050565b6000611b91601983612208565b91507f5468697320776166666c6520646f65736e2774206578697374000000000000006000830152602082019050919050565b6000611bd1602983612208565b91507f596f752063616e6e6f7420616464206d6f7265206c617965727320746f20746860008301527f697320776166666c6500000000000000000000000000000000000000000000006020830152604082019050919050565b6000611c37602883612208565b91507f596f752063616e277420766f746520666f72207468652073616d65207761666660008301527f6c652074776963650000000000000000000000000000000000000000000000006020830152604082019050919050565b6000611c9d604983612208565b91507f596f752063616e2774206164642061206e6577206c617965722069662074686560008301527f206c61737420776166666c65206c61796572206861736e2774206265656e206360208301527f7573746f6d697a656400000000000000000000000000000000000000000000006040830152606082019050919050565b6000611d29602b83612208565b91507f596f75206d75737420637265617465206174206c65617374206f6e652077616660008301527f666c6520746f20766f74650000000000000000000000000000000000000000006020830152604082019050919050565b6000611d8f604883612208565b91507f596f752063616e6e6f7420656e642074686520636f6d7065746974696f6e206260008301527f65666f72652074686520656e642074696d657374616d7020686173206265656e60208301527f2063726f737365640000000000000000000000000000000000000000000000006040830152606082019050919050565b6000611e1b602283612208565b91507f4d617820766f746573206f6e2074686973206163636f756e742065786365656460008301527f65640000000000000000000000000000000000000000000000000000000000006020830152604082019050919050565b6000611e81603283612208565b91507f596f752063616e27742062616b652061206c6179657220666f7220612077616660008301527f666c6520796f7520646f206e6f74206f776e00000000000000000000000000006020830152604082019050919050565b606082016000820151611ef06000850182611f1c565b506020820151611f036020850182611f1c565b506040820151611f16604085018261193e565b50505050565b611f2581612257565b82525050565b611f3481612257565b82525050565b6000602082019050611f4f60008301846118d1565b92915050565b600060e082019050611f6a600083018a6118d1565b8181036020830152611f7c818961194d565b90508181036040830152611f90818861194d565b9050611f9f6060830187611f2b565b611fac6080830186611f2b565b611fb960a0830185611f2b565b81810360c0830152611fcb81846118e0565b905098975050505050505050565b60006040820190508181036000830152611ff3818561194d565b90506120026020830184611f2b565b9392505050565b6000602082019050818103600083015261202281611986565b9050919050565b60006020820190508181036000830152612042816119ec565b9050919050565b6000602082019050818103600083015261206281611a52565b9050919050565b6000602082019050818103600083015261208281611ab8565b9050919050565b600060208201905081810360008301526120a281611b1e565b9050919050565b600060208201905081810360008301526120c281611b84565b9050919050565b600060208201905081810360008301526120e281611bc4565b9050919050565b6000602082019050818103600083015261210281611c2a565b9050919050565b6000602082019050818103600083015261212281611c90565b9050919050565b6000602082019050818103600083015261214281611d1c565b9050919050565b6000602082019050818103600083015261216281611d82565b9050919050565b6000602082019050818103600083015261218281611e0e565b9050919050565b600060208201905081810360008301526121a281611e74565b9050919050565b60006020820190506121be6000830184611f2b565b92915050565b6000819050602082019050919050565b600081519050919050565b600081519050919050565b6000602082019050919050565b600082825260208201905092915050565b600082825260208201905092915050565b600061222482612237565b9050919050565b60008115159050919050565b600073ffffffffffffffffffffffffffffffffffffffff82169050919050565b6000819050919050565b60005b8381101561227f578082015181840152602081019050612264565b8381111561228e576000848401525b50505050565b6000601f19601f8301169050919050565b6122ae81612257565b81146122b957600080fd5b5056fea2646970667358221220651a6304beea82a34ce0eff900086966f560d616f979a02a3b7e84fccd8bd8e664736f6c634300060c0033",
  "immutableReferences": {},
  "source": "pragma solidity ^0.6.0;\r\npragma experimental ABIEncoderV2;\r\n\r\ncontract WaffleMaker {\r\n    // ******************** CONSTANTS ***********************\r\n    uint constant MAX_WAFFLE_LAYERS = 5;\r\n    uint constant MAX_VOTES_PER_ACCOUNT = 3;\r\n    uint constant COMPETITION_DURATION = 2592000; // 1 month duration\r\n\r\n    // ******************** STRUCTS ***********************\r\n    struct WaffleItem {\r\n        string name;\r\n        uint price;\r\n    }\r\n\r\n    struct WaffleLayer {\r\n        uint base;\r\n        uint topping;\r\n        bool customized;\r\n    }\r\n\r\n    struct Waffle {\r\n        address owner;\r\n        uint votes;\r\n        uint actionStart; // Saves the Unix timestamp at which the either bake or customization worked\r\n        string name;\r\n        string description;\r\n        uint plate;\r\n        uint extra;\r\n        mapping(uint => WaffleLayer) layers;\r\n        uint layersCount;\r\n    }\r\n\r\n    struct AccountProfile {\r\n        mapping(uint => uint) ownedWaffles;\r\n        uint ownedWafflesCount;\r\n        mapping(uint => uint) votedWaffles;\r\n        uint votedWafflesCount;\r\n    }\r\n\r\n    // ******************** DATA ***********************\r\n    // Static data\r\n    address public admin; // Also the address to which the 10% dev fund is sent to\r\n    uint competitionStart;\r\n\r\n    // Semi static data\r\n    WaffleItem[] public toppings;\r\n    WaffleItem[] public bases;\r\n    WaffleItem[] public plates;\r\n    WaffleItem[] public extras;\r\n\r\n    // Variable data\r\n    Waffle[] waffles;\r\n    uint[3] recentWaffles;\r\n    mapping(address => AccountProfile) profiles;\r\n    bool competitionConcluded;\r\n\r\n    constructor() public{\r\n        admin = msg.sender;\r\n        competitionStart = block.timestamp;\r\n\r\n        toppings.push(WaffleItem('Empty', 0));\r\n        bases.push(WaffleItem('Empty', 0));\r\n        plates.push(WaffleItem('Empty', 0));\r\n        extras.push(WaffleItem('Empty', 0));\r\n    }\r\n\r\n    // ******************** SEND FUNCTIONS ***********************\r\n    function createWaffle() public {\r\n        require(!competitionHasEnded(), \"Cannot create a new waffle after competition has ended\");\r\n\r\n        waffles.push(Waffle({\r\n            owner: msg.sender,\r\n            votes: 0,\r\n            actionStart: block.timestamp,\r\n            name: \"\",\r\n            description: \"\",\r\n            plate: 0,\r\n            extra: 0,\r\n            layersCount: 0\r\n        }));\r\n        addWaffleLayer(waffles.length - 1);\r\n\r\n        profiles[msg.sender].ownedWaffles[profiles[msg.sender].ownedWafflesCount++] = waffles.length - 1;\r\n    }\r\n\r\n    /**\r\n    *   Add a new layer to the waffleId provided if the waffle is owned by the sender and if last\r\n    *   layer has been customized\r\n    **/\r\n    function bakeWaffleLayer(uint waffleId) public {\r\n        require(!competitionHasEnded(), \"You cannot modify a waffle after competition has ended\");\r\n        require(waffleExists(waffleId), \"This waffle doesn't exist\");\r\n        require(accountOwnsWaffle(msg.sender, waffleId), \"You can't bake a layer for a waffle you do not own\");\r\n        require(lastWaffleLayerIsCustomized(waffleId), \"You can't add a new layer if the last waffle layer hasn't been customized\");\r\n\r\n        addWaffleLayer(waffleId);\r\n    }\r\n\r\n    function customizeWaffleLayer(uint waffleId, uint base, uint topping, uint plate, uint extra) public {\r\n        require(!competitionHasEnded(), \"You cannot modify a waffle after competition has ended\");\r\n        require(waffleExists(waffleId), \"This waffle doesn't exist\");\r\n        require(accountOwnsWaffle(msg.sender, waffleId), \"You can't bake a layer for a waffle you do not own\");\r\n        require(!lastWaffleLayerIsCustomized(waffleId), \"You can't add a new layer if the last waffle layer hasn't been customized\");\r\n\r\n        if(waffles[waffleId].layersCount <= 1) {\r\n            waffles[waffleId].plate = plate;\r\n            waffles[waffleId].extra = extra;\r\n        }\r\n        uint lastLayerIndex = waffles[waffleId].layersCount - 1;\r\n        waffles[waffleId].layers[lastLayerIndex].base = base;\r\n        waffles[waffleId].layers[lastLayerIndex].topping = topping;\r\n        waffles[waffleId].layers[lastLayerIndex].customized = true;\r\n        waffles[waffleId].actionStart = block.timestamp;\r\n\r\n        recentWaffles[0] = recentWaffles[1];\r\n        recentWaffles[1] = recentWaffles[2];\r\n        recentWaffles[2] = waffleId;\r\n    }\r\n\r\n    function addWaffleIngredient(uint waffleId) public {\r\n\r\n    }\r\n\r\n    /**\r\n    *   Cast a vote for the waffleId provided from the sender account.\r\n    *\r\n    *   No more than MAX_VOTES_PER_ACCOUNT votes can be cast per account.\r\n    **/\r\n    function voteWaffle(uint waffleId) public {\r\n        require(!competitionHasEnded(), \"You cannot cast a vote on a waffle after competition has ended\");\r\n        require(waffleExists(waffleId), \"This waffle doesn't exist\");\r\n        require(profiles[msg.sender].ownedWafflesCount > 0, \"You must create at least one waffle to vote\");\r\n        require(profiles[msg.sender].votedWafflesCount < MAX_VOTES_PER_ACCOUNT, \"Max votes on this account exceeded\");\r\n        require(!accountOwnsWaffle(msg.sender, waffleId), \"You can't vote for your own waffle\");\r\n        require(!accountHasVotedOnWaffle(msg.sender, waffleId), \"You can't vote for the same waffle twice\");\r\n\r\n        waffles[waffleId].votes++;\r\n        profiles[msg.sender].votedWaffles[profiles[msg.sender].votedWafflesCount++] = waffleId;\r\n    }\r\n\r\n    /**\r\n    *   Call this to conclude the competition and distribute the rewards to the owner\r\n    *   of the waffle with the most votes\r\n    **/\r\n    function concludeCompetition() public {\r\n        require(competitionHasEnded(), \"You cannot end the competition before the end timestamp has been crossed\");\r\n        require(!competitionConcluded, \"Competition has already been concluded\");\r\n\r\n        competitionConcluded = true;\r\n    }\r\n\r\n    // ******************** VIEW FUNCTIONS ***********************\r\n    function getWaffleInfo(uint waffleId) public view returns (address owner, string memory name, string memory description, uint votes, uint plate, uint extra, WaffleLayer[] memory layers) {\r\n        require(waffleId < waffles.length, \"This waffle doesn't exist\");\r\n\r\n        Waffle memory waffle = waffles[waffleId];\r\n        WaffleLayer[] memory waffleLayers = new WaffleLayer[](waffle.layersCount);\r\n        for (uint i = 0; i < waffle.layersCount; i++) {\r\n            waffleLayers[i] = waffles[waffleId].layers[i];\r\n        }\r\n        return (waffle.owner, waffle.name, waffle.description, waffle.votes, waffle.plate, waffle.extra, waffleLayers);\r\n    }\r\n\r\n    /**\r\n    *   See the timestamp at which the competition will end and concludeCompetition()\r\n    *   can be called by anyone to distribute the reward\r\n    **/\r\n    function getCompetitionEndTimestamp() public view returns (uint) {\r\n        return competitionStart + COMPETITION_DURATION;\r\n    }\r\n\r\n    // ******************** INTERNAL FUNCTIONS ***********************\r\n    function addWaffleLayer(uint waffleId) internal {\r\n        require(waffles[waffleId].layersCount < MAX_WAFFLE_LAYERS, \"You cannot add more layers to this waffle\");\r\n        waffles[waffleId].layers[waffles[waffleId].layersCount++] = WaffleLayer(0,0,false);\r\n    }\r\n\r\n    function waffleExists(uint waffleId) internal returns(bool) {\r\n        return waffleId < waffles.length;\r\n    }\r\n\r\n    function lastWaffleLayerIsCustomized(uint waffleId) internal returns(bool) {\r\n        return waffles[waffleId].layers[waffles[waffleId].layersCount - 1].customized;\r\n    }\r\n\r\n    function accountOwnsWaffle(address account, uint waffleId) internal returns(bool) {\r\n        for (uint i = 0; i < profiles[account].ownedWafflesCount; i++) {\r\n            if (profiles[account].ownedWaffles[i] == waffleId) {\r\n                return true;\r\n            }\r\n        }\r\n        return false;\r\n    }\r\n\r\n    function accountHasVotedOnWaffle(address account, uint waffleId) internal returns(bool) {\r\n        for (uint i = 0; i < profiles[account].votedWafflesCount; i++) {\r\n            if (profiles[account].votedWaffles[i] == waffleId) {\r\n                return true;\r\n            }\r\n        }\r\n        return false;\r\n    }\r\n\r\n    function competitionHasEnded() internal returns (bool) {\r\n        uint endTimestamp = competitionStart + COMPETITION_DURATION;\r\n        return block.timestamp >= endTimestamp;\r\n    }\r\n}\r\n",
  "sourcePath": "C:/Users/ypelletier/Desktop/Projects/WaffleHouse/contracts/WaffleMaker.sol",
  "compiler": {
    "name": "solc",
    "version": "0.6.12+commit.27d51765.Emscripten.clang"
  },
  "schemaVersion": "3.3.2",
  "updatedAt": "2020-11-14T12:28:39.978Z",
  "networkType": "ethereum",
  "devdoc": {
    "kind": "dev",
    "methods": {},
    "version": 1
  },
  "userdoc": {
    "kind": "user",
    "methods": {
      "bakeWaffleLayer(uint256)": {
        "notice": "Add a new layer to the waffleId provided if the waffle is owned by the sender and if last   layer has been customized*"
      },
      "concludeCompetition()": {
        "notice": "Call this to conclude the competition and distribute the rewards to the owner   of the waffle with the most votes*"
      },
      "getCompetitionEndTimestamp()": {
        "notice": "See the timestamp at which the competition will end and concludeCompetition()   can be called by anyone to distribute the reward*"
      },
      "voteWaffle(uint256)": {
        "notice": "Cast a vote for the waffleId provided from the sender account.   No more than MAX_VOTES_PER_ACCOUNT votes can be cast per account.*"
      }
    },
    "version": 1
  }
}