{
  "contractName": "WaffleMaker",
  "abi": [
    {
      "inputs": [],
      "stateMutability": "nonpayable",
      "type": "constructor"
    },
    {
      "inputs": [],
      "name": "admin",
      "outputs": [
        {
          "internalType": "address",
          "name": "",
          "type": "address"
        }
      ],
      "stateMutability": "view",
      "type": "function",
      "constant": true
    },
    {
      "inputs": [
        {
          "internalType": "uint256",
          "name": "",
          "type": "uint256"
        }
      ],
      "name": "bases",
      "outputs": [
        {
          "internalType": "string",
          "name": "name",
          "type": "string"
        },
        {
          "internalType": "uint256",
          "name": "price",
          "type": "uint256"
        }
      ],
      "stateMutability": "view",
      "type": "function",
      "constant": true
    },
    {
      "inputs": [],
      "name": "competitionEndTimestamp",
      "outputs": [
        {
          "internalType": "uint256",
          "name": "",
          "type": "uint256"
        }
      ],
      "stateMutability": "view",
      "type": "function",
      "constant": true
    },
    {
      "inputs": [
        {
          "internalType": "uint256",
          "name": "",
          "type": "uint256"
        }
      ],
      "name": "extras",
      "outputs": [
        {
          "internalType": "string",
          "name": "name",
          "type": "string"
        },
        {
          "internalType": "uint256",
          "name": "price",
          "type": "uint256"
        }
      ],
      "stateMutability": "view",
      "type": "function",
      "constant": true
    },
    {
      "inputs": [
        {
          "internalType": "uint256",
          "name": "",
          "type": "uint256"
        }
      ],
      "name": "plates",
      "outputs": [
        {
          "internalType": "string",
          "name": "name",
          "type": "string"
        },
        {
          "internalType": "uint256",
          "name": "price",
          "type": "uint256"
        }
      ],
      "stateMutability": "view",
      "type": "function",
      "constant": true
    },
    {
      "inputs": [
        {
          "internalType": "uint256",
          "name": "",
          "type": "uint256"
        }
      ],
      "name": "toppings",
      "outputs": [
        {
          "internalType": "string",
          "name": "name",
          "type": "string"
        },
        {
          "internalType": "uint256",
          "name": "price",
          "type": "uint256"
        }
      ],
      "stateMutability": "view",
      "type": "function",
      "constant": true
    },
    {
      "inputs": [],
      "name": "createWaffle",
      "outputs": [],
      "stateMutability": "nonpayable",
      "type": "function"
    },
    {
      "inputs": [
        {
          "internalType": "uint256",
          "name": "waffleId",
          "type": "uint256"
        }
      ],
      "name": "bakeWaffleLayer",
      "outputs": [],
      "stateMutability": "nonpayable",
      "type": "function"
    },
    {
      "inputs": [
        {
          "internalType": "uint256",
          "name": "waffleId",
          "type": "uint256"
        },
        {
          "internalType": "string",
          "name": "name",
          "type": "string"
        },
        {
          "internalType": "string",
          "name": "description",
          "type": "string"
        },
        {
          "internalType": "uint256",
          "name": "baseId",
          "type": "uint256"
        },
        {
          "internalType": "uint256",
          "name": "toppingId",
          "type": "uint256"
        },
        {
          "internalType": "uint256",
          "name": "extraId",
          "type": "uint256"
        },
        {
          "internalType": "uint256",
          "name": "plateId",
          "type": "uint256"
        }
      ],
      "name": "submitWaffleCustomization",
      "outputs": [],
      "stateMutability": "nonpayable",
      "type": "function"
    },
    {
      "inputs": [
        {
          "internalType": "uint256",
          "name": "waffleId",
          "type": "uint256"
        }
      ],
      "name": "advanceWaffleCustomizationStep",
      "outputs": [],
      "stateMutability": "nonpayable",
      "type": "function"
    },
    {
      "inputs": [
        {
          "internalType": "uint256",
          "name": "waffleId",
          "type": "uint256"
        }
      ],
      "name": "publishWaffle",
      "outputs": [],
      "stateMutability": "nonpayable",
      "type": "function"
    },
    {
      "inputs": [
        {
          "internalType": "uint256",
          "name": "waffleId",
          "type": "uint256"
        }
      ],
      "name": "voteWaffle",
      "outputs": [],
      "stateMutability": "nonpayable",
      "type": "function"
    },
    {
      "inputs": [],
      "name": "concludeCompetition",
      "outputs": [],
      "stateMutability": "nonpayable",
      "type": "function"
    },
    {
      "inputs": [
        {
          "internalType": "uint256",
          "name": "waffleId",
          "type": "uint256"
        }
      ],
      "name": "getWaffleInfo",
      "outputs": [
        {
          "internalType": "address",
          "name": "owner",
          "type": "address"
        },
        {
          "internalType": "string",
          "name": "name",
          "type": "string"
        },
        {
          "internalType": "string",
          "name": "description",
          "type": "string"
        },
        {
          "internalType": "uint256",
          "name": "votes",
          "type": "uint256"
        },
        {
          "internalType": "uint256",
          "name": "extraId",
          "type": "uint256"
        },
        {
          "internalType": "uint256",
          "name": "plateId",
          "type": "uint256"
        },
        {
          "internalType": "uint256",
          "name": "processEnd",
          "type": "uint256"
        },
        {
          "internalType": "bool",
          "name": "published",
          "type": "bool"
        },
        {
          "internalType": "enum WaffleMaker.CustomizationStep",
          "name": "customizationStep",
          "type": "uint8"
        },
        {
          "components": [
            {
              "internalType": "uint256",
              "name": "baseId",
              "type": "uint256"
            },
            {
              "internalType": "uint256",
              "name": "toppingId",
              "type": "uint256"
            }
          ],
          "internalType": "struct WaffleMaker.WaffleLayer[]",
          "name": "layers",
          "type": "tuple[]"
        }
      ],
      "stateMutability": "view",
      "type": "function",
      "constant": true
    },
    {
      "inputs": [
        {
          "internalType": "address",
          "name": "addr",
          "type": "address"
        }
      ],
      "name": "getProfileInfo",
      "outputs": [
        {
          "internalType": "uint256[]",
          "name": "ownedWaffleIds",
          "type": "uint256[]"
        },
        {
          "internalType": "uint256[]",
          "name": "votedWaffleIds",
          "type": "uint256[]"
        },
        {
          "internalType": "uint256",
          "name": "publishedWafflesCount",
          "type": "uint256"
        }
      ],
      "stateMutability": "view",
      "type": "function",
      "constant": true
    }
  ],
  "bytecode": "0x60806040526040518060c00160405280600060ff168152602001601e60ff168152602001603c60ff168152602001605a60ff168152602001607860ff168152602001600060ff1681525060009060066200005b92919062000341565b503480156200006957600080fd5b5033600160006101000a81548173ffffffffffffffffffffffffffffffffffffffff021916908373ffffffffffffffffffffffffffffffffffffffff16021790555062278d004201600281905550600360405180604001604052806040518060400160405280600581526020017f456d70747900000000000000000000000000000000000000000000000000000081525081526020016000815250908060018154018082558091505060019003906000526020600020906002020160009091909190915060008201518160000190805190602001906200014b929190620003e6565b50602082015181600101555050600460405180604001604052806040518060400160405280600581526020017f456d7074790000000000000000000000000000000000000000000000000000008152508152602001600081525090806001815401808255809150506001900390600052602060002090600202016000909190919091506000820151816000019080519060200190620001ec929190620003e6565b50602082015181600101555050600560405180604001604052806040518060400160405280600b81526020017f506c61696e20506c61746500000000000000000000000000000000000000000081525081526020016000815250908060018154018082558091505060019003906000526020600020906002020160009091909190915060008201518160000190805190602001906200028d929190620003e6565b50602082015181600101555050600660405180604001604052806040518060400160405280600581526020017f456d70747900000000000000000000000000000000000000000000000000000081525081526020016000815250908060018154018082558091505060019003906000526020600020906002020160009091909190915060008201518160000190805190602001906200032e929190620003e6565b50602082015181600101555050620004b8565b826006600901600a90048101928215620003d35791602002820160005b83821115620003a057835183826101000a81548162ffffff021916908360ff16021790555092602001926003016020816002010492830192600103026200035e565b8015620003d15782816101000a81549062ffffff0219169055600301602081600201049283019260010302620003a0565b505b509050620003e291906200046d565b5090565b828054600181600116156101000203166002900490600052602060002090601f016020900481019282601f106200042957805160ff19168380011785556200045a565b828001600101855582156200045a579182015b82811115620004595782518255916020019190600101906200043c565b5b50905062000469919062000499565b5090565b5b808211156200049557600081816101000a81549062ffffff0219169055506001016200046e565b5090565b5b80821115620004b45760008160009055506001016200049a565b5090565b613b0080620004c86000396000f3fe608060405234801561001057600080fd5b50600436106100f55760003560e01c80639e40471611610097578063c8781caa11610066578063c8781caa1461028e578063d01fa60c146102ac578063e62f9eb9146102dd578063f851a440146102e7576100f5565b80639e4047161461021e578063aa0282ec1461023a578063ae6747b814610256578063c5cd206514610272576100f5565b806372041848116100d357806372041848146101665780639531c82f14610197578063971c7f5a146101d05780639dae4cf1146101ec576100f5565b80630cacbec8146100fa5780630f3b22c0146101045780635468bc2f14610135575b600080fd5b610102610305565b005b61011e60048036038101906101199190612c46565b6105c7565b60405161012c92919061361d565b60405180910390f35b61014f600480360381019061014a9190612c46565b610690565b60405161015d92919061361d565b60405180910390f35b610180600480360381019061017b9190612c46565b610759565b60405161018e92919061361d565b60405180910390f35b6101b160048036038101906101ac9190612c46565b610822565b6040516101c79a99989796959493929190613527565b60405180910390f35b6101ea60048036038101906101e59190612c46565b610bef565b005b61020660048036038101906102019190612c1d565b611027565b604051610215939291906135d8565b60405180910390f35b61023860048036038101906102339190612c46565b611328565b005b610254600480360381019061024f9190612c46565b6116e5565b005b610270600480360381019061026b9190612c46565b61198f565b005b61028c60048036038101906102879190612c6f565b611cd2565b005b610296612167565b6040516102a391906138cd565b60405180910390f35b6102c660048036038101906102c19190612c46565b61216d565b6040516102d492919061361d565b60405180910390f35b6102e5612236565b005b6102ef6122e8565b6040516102fc919061350c565b60405180910390f35b6002544210610349576040517f08c379a00000000000000000000000000000000000000000000000000000000081526004016103409061366d565b60405180910390fd5b60076040518061014001604052803373ffffffffffffffffffffffffffffffffffffffff16815260200160008152602001604051806020016040528060008152508152602001604051806020016040528060008152508152602001600081526020016000815260200160008152602001600015158152602001600060058111156103cf57fe5b8152602001600a420181525090806001815401808255809150506001900390600052602060002090600a020160009091909190915060008201518160000160006101000a81548173ffffffffffffffffffffffffffffffffffffffff021916908373ffffffffffffffffffffffffffffffffffffffff160217905550602082015181600101556040820151816002019080519060200190610471929190612a72565b50606082015181600301908051906020019061048e929190612a72565b506080820151816004015560a0820151816005015560c0820151816007015560e08201518160080160006101000a81548160ff0219169083151502179055506101008201518160080160016101000a81548160ff021916908360058111156104f257fe5b02179055506101208201518160090155505061051560016007805490500361230e565b600160078054905003600960003373ffffffffffffffffffffffffffffffffffffffff1673ffffffffffffffffffffffffffffffffffffffff1681526020019081526020016000206000016000600960003373ffffffffffffffffffffffffffffffffffffffff1673ffffffffffffffffffffffffffffffffffffffff168152602001908152602001600020600101600081548092919060010191905055815260200190815260200160002081905550565b600381815481106105d457fe5b9060005260206000209060020201600091509050806000018054600181600116156101000203166002900480601f0160208091040260200160405190810160405280929190818152602001828054600181600116156101000203166002900480156106805780601f1061065557610100808354040283529160200191610680565b820191906000526020600020905b81548152906001019060200180831161066357829003601f168201915b5050505050908060010154905082565b6006818154811061069d57fe5b9060005260206000209060020201600091509050806000018054600181600116156101000203166002900480601f0160208091040260200160405190810160405280929190818152602001828054600181600116156101000203166002900480156107495780601f1061071e57610100808354040283529160200191610749565b820191906000526020600020905b81548152906001019060200180831161072c57829003601f168201915b5050505050908060010154905082565b6004818154811061076657fe5b9060005260206000209060020201600091509050806000018054600181600116156101000203166002900480601f0160208091040260200160405190810160405280929190818152602001828054600181600116156101000203166002900480156108125780601f106107e757610100808354040283529160200191610812565b820191906000526020600020905b8154815290600101906020018083116107f557829003601f168201915b5050505050908060010154905082565b600060608060008060008060008060608a600780549050811061087a576040517f08c379a00000000000000000000000000000000000000000000000000000000081526004016108719061376d565b60405180910390fd5b610882612af2565b60078d8154811061088f57fe5b90600052602060002090600a0201604051806101400160405290816000820160009054906101000a900473ffffffffffffffffffffffffffffffffffffffff1673ffffffffffffffffffffffffffffffffffffffff1673ffffffffffffffffffffffffffffffffffffffff16815260200160018201548152602001600282018054600181600116156101000203166002900480601f0160208091040260200160405190810160405280929190818152602001828054600181600116156101000203166002900480156109a25780601f10610977576101008083540402835291602001916109a2565b820191906000526020600020905b81548152906001019060200180831161098557829003601f168201915b50505050508152602001600382018054600181600116156101000203166002900480601f016020809104026020016040519081016040528092919081815260200182805460018160011615610100020316600290048015610a445780601f10610a1957610100808354040283529160200191610a44565b820191906000526020600020905b815481529060010190602001808311610a2757829003601f168201915b505050505081526020016004820154815260200160058201548152602001600782015481526020016008820160009054906101000a900460ff161515151581526020016008820160019054906101000a900460ff166005811115610aa457fe5b6005811115610aaf57fe5b8152602001600982015481525050905060608160c0015167ffffffffffffffff81118015610adc57600080fd5b50604051908082528060200260200182016040528015610b1657816020015b610b03612b68565b815260200190600190039081610afb5790505b50905060005b8260c00151811015610b9a5760078f81548110610b3557fe5b90600052602060002090600a0201600601600082815260200190815260200160002060405180604001604052908160008201548152602001600182015481525050828281518110610b8257fe5b60200260200101819052508080600101915050610b1c565b5081600001518260400151836060015184602001518560a0015186608001518761012001518860e00151896101000151899c509c509c509c509c509c509c509c509c509c505050509193959799509193959799565b6002544210610c33576040517f08c379a0000000000000000000000000000000000000000000000000000000008152600401610c2a9061366d565b60405180910390fd5b806007805490508110610c7b576040517f08c379a0000000000000000000000000000000000000000000000000000000008152600401610c729061376d565b60405180910390fd5b6000826000805b600960003373ffffffffffffffffffffffffffffffffffffffff1673ffffffffffffffffffffffffffffffffffffffff16815260200190815260200160002060010154811015610d395782600960003373ffffffffffffffffffffffffffffffffffffffff1673ffffffffffffffffffffffffffffffffffffffff1681526020019081526020016000206000016000838152602001908152602001600020541415610d2c57600191505b8080600101915050610c82565b5082151581151514610d80576040517f08c379a0000000000000000000000000000000000000000000000000000000008152600401610d779061368d565b60405180910390fd5b60018581151560078281548110610d9357fe5b90600052602060002090600a020160080160009054906101000a900460ff16151514610df4576040517f08c379a0000000000000000000000000000000000000000000000000000000008152600401610deb906136cd565b60405180910390fd5b6000600960003373ffffffffffffffffffffffffffffffffffffffff1673ffffffffffffffffffffffffffffffffffffffff1681526020019081526020016000206004015411610e79576040517f08c379a0000000000000000000000000000000000000000000000000000000008152600401610e70906137ed565b60405180910390fd5b6003600960003373ffffffffffffffffffffffffffffffffffffffff1673ffffffffffffffffffffffffffffffffffffffff1681526020019081526020016000206003015410610efe576040517f08c379a0000000000000000000000000000000000000000000000000000000008152600401610ef59061380d565b60405180910390fd5b610f08338861243b565b15610f48576040517f08c379a0000000000000000000000000000000000000000000000000000000008152600401610f3f9061378d565b60405180910390fd5b60078781548110610f5557fe5b90600052602060002090600a02016001016000815480929190600101919050555086600960003373ffffffffffffffffffffffffffffffffffffffff1673ffffffffffffffffffffffffffffffffffffffff1681526020019081526020016000206002016000600960003373ffffffffffffffffffffffffffffffffffffffff1673ffffffffffffffffffffffffffffffffffffffff16815260200190815260200160002060030160008154809291906001019190505581526020019081526020016000208190555050505050505050565b60608060006060600960008673ffffffffffffffffffffffffffffffffffffffff1673ffffffffffffffffffffffffffffffffffffffff1681526020019081526020016000206001015467ffffffffffffffff8111801561108757600080fd5b506040519080825280602002602001820160405280156110b65781602001602082028036833780820191505090505b50905060005b600960008773ffffffffffffffffffffffffffffffffffffffff1673ffffffffffffffffffffffffffffffffffffffff1681526020019081526020016000206001015481101561117f57600960008773ffffffffffffffffffffffffffffffffffffffff1673ffffffffffffffffffffffffffffffffffffffff16815260200190815260200160002060000160008281526020019081526020016000205482828151811061116657fe5b60200260200101818152505080806001019150506110bc565b506060600960008773ffffffffffffffffffffffffffffffffffffffff1673ffffffffffffffffffffffffffffffffffffffff1681526020019081526020016000206003015467ffffffffffffffff811180156111db57600080fd5b5060405190808252806020026020018201604052801561120a5781602001602082028036833780820191505090505b50905060005b600960008873ffffffffffffffffffffffffffffffffffffffff1673ffffffffffffffffffffffffffffffffffffffff168152602001908152602001600020600301548110156112d357600960008873ffffffffffffffffffffffffffffffffffffffff1673ffffffffffffffffffffffffffffffffffffffff1681526020019081526020016000206002016000828152602001908152602001600020548282815181106112ba57fe5b6020026020010181815250508080600101915050611210565b508181600960008973ffffffffffffffffffffffffffffffffffffffff1673ffffffffffffffffffffffffffffffffffffffff1681526020019081526020016000206004015494509450945050509193909250565b600254421061136c576040517f08c379a00000000000000000000000000000000000000000000000000000000081526004016113639061366d565b60405180910390fd5b8060078054905081106113b4576040517f08c379a00000000000000000000000000000000000000000000000000000000081526004016113ab9061376d565b60405180910390fd5b6001826000805b600960003373ffffffffffffffffffffffffffffffffffffffff1673ffffffffffffffffffffffffffffffffffffffff168152602001908152602001600020600101548110156114725782600960003373ffffffffffffffffffffffffffffffffffffffff1673ffffffffffffffffffffffffffffffffffffffff168152602001908152602001600020600001600083815260200190815260200160002054141561146557600191505b80806001019150506113bb565b50821515811515146114b9576040517f08c379a00000000000000000000000000000000000000000000000000000000081526004016114b09061368d565b60405180910390fd5b600085811515600782815481106114cc57fe5b90600052602060002090600a020160080160009054906101000a900460ff1615151461152d576040517f08c379a0000000000000000000000000000000000000000000000000000000008152600401611524906136cd565b60405180910390fd5b60058081111561153957fe5b6007888154811061154657fe5b90600052602060002090600a020160080160019054906101000a900460ff16600581111561157057fe5b106115b0576040517f08c379a00000000000000000000000000000000000000000000000000000000081526004016115a79061388d565b60405180910390fd5b6000600788815481106115bf57fe5b90600052602060002090600a020160080160019054906101000a900460ff1660058111156115e957fe5b90506000607860078a815481106115fc57fe5b90600052602060002090600a020160090154039050600080836006811061161f57fe5b600a91828204019190066003029054906101000a900462ffffff1662ffffff16820190506000601e8203905080421161168d576040517f08c379a00000000000000000000000000000000000000000000000000000000081526004016116849061382d565b60405180910390fd5b8142106116cf576040517f08c379a00000000000000000000000000000000000000000000000000000000081526004016116c6906136ed565b60405180910390fd5b6116d88b61250b565b5050505050505050505050565b6002544210611729576040517f08c379a00000000000000000000000000000000000000000000000000000000081526004016117209061366d565b60405180910390fd5b806007805490508110611771576040517f08c379a00000000000000000000000000000000000000000000000000000000081526004016117689061376d565b60405180910390fd5b6001826000805b600960003373ffffffffffffffffffffffffffffffffffffffff1673ffffffffffffffffffffffffffffffffffffffff1681526020019081526020016000206001015481101561182f5782600960003373ffffffffffffffffffffffffffffffffffffffff1673ffffffffffffffffffffffffffffffffffffffff168152602001908152602001600020600001600083815260200190815260200160002054141561182257600191505b8080600101915050611778565b5082151581151514611876576040517f08c379a000000000000000000000000000000000000000000000000000000000815260040161186d9061368d565b60405180910390fd5b60058081111561188257fe5b6007868154811061188f57fe5b90600052602060002090600a020160080160019054906101000a900460ff1660058111156118b957fe5b146118f9576040517f08c379a00000000000000000000000000000000000000000000000000000000081526004016118f09061372d565b60405180910390fd5b6007858154811061190657fe5b90600052602060002090600a0201600901544211611959576040517f08c379a00000000000000000000000000000000000000000000000000000000081526004016119509061364d565b60405180910390fd5b6119628561230e565b600a42016007868154811061197357fe5b90600052602060002090600a0201600901819055505050505050565b60025442106119d3576040517f08c379a00000000000000000000000000000000000000000000000000000000081526004016119ca9061366d565b60405180910390fd5b806007805490508110611a1b576040517f08c379a0000000000000000000000000000000000000000000000000000000008152600401611a129061376d565b60405180910390fd5b6001826000805b600960003373ffffffffffffffffffffffffffffffffffffffff1673ffffffffffffffffffffffffffffffffffffffff16815260200190815260200160002060010154811015611ad95782600960003373ffffffffffffffffffffffffffffffffffffffff1673ffffffffffffffffffffffffffffffffffffffff1681526020019081526020016000206000016000838152602001908152602001600020541415611acc57600191505b8080600101915050611a22565b5082151581151514611b20576040517f08c379a0000000000000000000000000000000000000000000000000000000008152600401611b179061368d565b60405180910390fd5b60008581151560078281548110611b3357fe5b90600052602060002090600a020160080160009054906101000a900460ff16151514611b94576040517f08c379a0000000000000000000000000000000000000000000000000000000008152600401611b8b906136cd565b60405180910390fd5b600580811115611ba057fe5b60078881548110611bad57fe5b90600052602060002090600a020160080160019054906101000a900460ff166005811115611bd757fe5b14611c17576040517f08c379a0000000000000000000000000000000000000000000000000000000008152600401611c0e906138ad565b60405180910390fd5b600160078881548110611c2657fe5b90600052602060002090600a020160080160006101000a81548160ff0219169083151502179055506008879080600181540180825580915050600190039060005260206000200160009091909190915055600960003373ffffffffffffffffffffffffffffffffffffffff1673ffffffffffffffffffffffffffffffffffffffff1681526020019081526020016000206004016000815480929190600101919050555050505050505050565b6002544210611d16576040517f08c379a0000000000000000000000000000000000000000000000000000000008152600401611d0d9061366d565b60405180910390fd5b866007805490508110611d5e576040517f08c379a0000000000000000000000000000000000000000000000000000000008152600401611d559061376d565b60405180910390fd5b6001886000805b600960003373ffffffffffffffffffffffffffffffffffffffff1673ffffffffffffffffffffffffffffffffffffffff16815260200190815260200160002060010154811015611e1c5782600960003373ffffffffffffffffffffffffffffffffffffffff1673ffffffffffffffffffffffffffffffffffffffff1681526020019081526020016000206000016000838152602001908152602001600020541415611e0f57600191505b8080600101915050611d65565b5082151581151514611e63576040517f08c379a0000000000000000000000000000000000000000000000000000000008152600401611e5a9061368d565b60405180910390fd5b60006005811115611e7057fe5b60078c81548110611e7d57fe5b90600052602060002090600a020160080160019054906101000a900460ff166005811115611ea757fe5b14611ee7576040517f08c379a0000000000000000000000000000000000000000000000000000000008152600401611ede906136ad565b60405180910390fd5b600160078c81548110611ef657fe5b90600052602060002090600a0201600701541161209657611f168a6125a5565b611f55576040517f08c379a0000000000000000000000000000000000000000000000000000000008152600401611f4c9061370d565b60405180910390fd5b611f608a60146125b9565b611f9f576040517f08c379a0000000000000000000000000000000000000000000000000000000008152600401611f969061384d565b60405180910390fd5b611faa89604b6125b9565b611fe9576040517f08c379a0000000000000000000000000000000000000000000000000000000008152600401611fe0906137ad565b60405180910390fd5b8960078c81548110611ff757fe5b90600052602060002090600a0201600201908051906020019061201b929190612a72565b508860078c8154811061202a57fe5b90600052602060002090600a0201600301908051906020019061204e929190612a72565b508460078c8154811061205d57fe5b90600052602060002090600a0201600401819055508560078c8154811061208057fe5b90600052602060002090600a0201600501819055505b6000600160078d815481106120a757fe5b90600052602060002090600a0201600701540390508860078d815481106120ca57fe5b90600052602060002090600a02016006016000838152602001908152602001600020600001819055508760078d8154811061210157fe5b90600052602060002090600a02016006016000838152602001908152602001600020600101819055506078420160078d8154811061213b57fe5b90600052602060002090600a0201600901819055506121598c61250b565b505050505050505050505050565b60025481565b6005818154811061217a57fe5b9060005260206000209060020201600091509050806000018054600181600116156101000203166002900480601f0160208091040260200160405190810160405280929190818152602001828054600181600116156101000203166002900480156122265780601f106121fb57610100808354040283529160200191612226565b820191906000526020600020905b81548152906001019060200180831161220957829003601f168201915b5050505050908060010154905082565b60025442101561227b576040517f08c379a00000000000000000000000000000000000000000000000000000000081526004016122729061386d565b60405180910390fd5b600a60009054906101000a900460ff16156122cb576040517f08c379a00000000000000000000000000000000000000000000000000000000081526004016122c29061374d565b60405180910390fd5b6001600a60006101000a81548160ff021916908315150217905550565b600160009054906101000a900473ffffffffffffffffffffffffffffffffffffffff1681565b60056007828154811061231d57fe5b90600052602060002090600a0201600701541061236f576040517f08c379a0000000000000000000000000000000000000000000000000000000008152600401612366906137cd565b60405180910390fd5b60405180604001604052806000815260200160008152506007828154811061239357fe5b90600052602060002090600a02016006016000600784815481106123b357fe5b90600052602060002090600a02016007016000815480929190600101919050558152602001908152602001600020600082015181600001556020820151816001015590505060006007828154811061240757fe5b90600052602060002090600a020160080160016101000a81548160ff0219169083600581111561243357fe5b021790555050565b600080600090505b600960008573ffffffffffffffffffffffffffffffffffffffff1673ffffffffffffffffffffffffffffffffffffffff168152602001908152602001600020600301548110156124ff5782600960008673ffffffffffffffffffffffffffffffffffffffff1673ffffffffffffffffffffffffffffffffffffffff16815260200190815260200160002060020160008381526020019081526020016000205414156124f2576001915050612505565b8080600101915050612443565b50600090505b92915050565b5b600060016007838154811061251d57fe5b90600052602060002090600a020160080160019054906101000a900460ff16600581111561254757fe5b01905080600581111561255657fe5b6007838154811061256357fe5b90600052602060002090600a020160080160016101000a81548160ff0219169083600581111561258f57fe5b02179055505061259e816125ce565b61250c5750565b600060608290506000815111915050919050565b60006060839050828151111591505092915050565b60006001600783815481106125df57fe5b90600052602060002090600a020160070154141561285e576001600581111561260457fe5b6007838154811061261157fe5b90600052602060002090600a020160080160019054906101000a900460ff16600581111561263b57fe5b148015612666575060006007838154811061265257fe5b90600052602060002090600a020160040154145b156126745760019050612a6d565b6004600581111561268157fe5b6007838154811061268e57fe5b90600052602060002090600a020160080160019054906101000a900460ff1660058111156126b857fe5b1480156126e357506000600783815481106126cf57fe5b90600052602060002090600a020160050154145b156126f15760019050612a6d565b600260058111156126fe57fe5b6007838154811061270b57fe5b90600052602060002090600a020160080160019054906101000a900460ff16600581111561273557fe5b148015612795575060006007838154811061274c57fe5b90600052602060002090600a0201600601600060016007868154811061276e57fe5b90600052602060002090600a02016007015403815260200190815260200160002060000154145b156127a35760019050612a6d565b600360058111156127b057fe5b600783815481106127bd57fe5b90600052602060002090600a020160080160019054906101000a900460ff1660058111156127e757fe5b14801561284757506000600783815481106127fe57fe5b90600052602060002090600a0201600601600060016007868154811061282057fe5b90600052602060002090600a02016007015403815260200190815260200160002060010154145b156128555760019050612a6d565b60009050612a6d565b6001600581111561286b57fe5b6007838154811061287857fe5b90600052602060002090600a020160080160019054906101000a900460ff1660058111156128a257fe5b14156128b15760019050612a6d565b600460058111156128be57fe5b600783815481106128cb57fe5b90600052602060002090600a020160080160019054906101000a900460ff1660058111156128f557fe5b14156129045760019050612a6d565b6002600581111561291157fe5b6007838154811061291e57fe5b90600052602060002090600a020160080160019054906101000a900460ff16600581111561294857fe5b1480156129a8575060006007838154811061295f57fe5b90600052602060002090600a0201600601600060016007868154811061298157fe5b90600052602060002090600a02016007015403815260200190815260200160002060000154145b156129b65760019050612a6d565b600360058111156129c357fe5b600783815481106129d057fe5b90600052602060002090600a020160080160019054906101000a900460ff1660058111156129fa57fe5b148015612a5a5750600060078381548110612a1157fe5b90600052602060002090600a02016006016000600160078681548110612a3357fe5b90600052602060002090600a02016007015403815260200190815260200160002060010154145b15612a685760019050612a6d565b600090505b919050565b828054600181600116156101000203166002900490600052602060002090601f016020900481019282601f10612ab357805160ff1916838001178555612ae1565b82800160010185558215612ae1579182015b82811115612ae0578251825591602001919060010190612ac5565b5b509050612aee9190612b82565b5090565b604051806101400160405280600073ffffffffffffffffffffffffffffffffffffffff16815260200160008152602001606081526020016060815260200160008152602001600081526020016000815260200160001515815260200160006005811115612b5b57fe5b8152602001600081525090565b604051806040016040528060008152602001600081525090565b5b80821115612b9b576000816000905550600101612b83565b5090565b600081359050612bae81613a9c565b92915050565b600082601f830112612bc557600080fd5b8135612bd8612bd382613915565b6138e8565b91508082526020830160208301858383011115612bf457600080fd5b612bff838284613a3c565b50505092915050565b600081359050612c1781613ab3565b92915050565b600060208284031215612c2f57600080fd5b6000612c3d84828501612b9f565b91505092915050565b600060208284031215612c5857600080fd5b6000612c6684828501612c08565b91505092915050565b600080600080600080600060e0888a031215612c8a57600080fd5b6000612c988a828b01612c08565b975050602088013567ffffffffffffffff811115612cb557600080fd5b612cc18a828b01612bb4565b965050604088013567ffffffffffffffff811115612cde57600080fd5b612cea8a828b01612bb4565b9550506060612cfb8a828b01612c08565b9450506080612d0c8a828b01612c08565b93505060a0612d1d8a828b01612c08565b92505060c0612d2e8a828b01612c08565b91505092959891949750929550565b6000612d4983836134bf565b60408301905092915050565b6000612d6183836134ee565b60208301905092915050565b612d76816139cf565b82525050565b6000612d8782613961565b612d91818561399c565b9350612d9c83613941565b8060005b83811015612dcd578151612db48882612d3d565b9750612dbf83613982565b925050600181019050612da0565b5085935050505092915050565b6000612de58261396c565b612def81856139ad565b9350612dfa83613951565b8060005b83811015612e2b578151612e128882612d55565b9750612e1d8361398f565b925050600181019050612dfe565b5085935050505092915050565b612e41816139e1565b82525050565b612e5081613a2a565b82525050565b6000612e6182613977565b612e6b81856139be565b9350612e7b818560208601613a4b565b612e8481613a7e565b840191505092915050565b6000612e9c601e836139be565b91507f576166666c6520616c7265616479206265696e672070726f63657373656400006000830152602082019050919050565b6000612edc601b836139be565b91507f436f6d7065746974696f6e206d757374206265206f6e676f696e6700000000006000830152602082019050919050565b6000612f1c6014836139be565b91507f496e76616c696420776166666c65206f776e65720000000000000000000000006000830152602082019050919050565b6000612f5c6029836139be565b91507f4c617374206c61796572206d757374206e6f7420616c7265616479206265206360008301527f7573746f6d697a656400000000000000000000000000000000000000000000006020830152604082019050919050565b6000612fc26017836139be565b91507f496e76616c6964207075626c69736865642073746174650000000000000000006000830152602082019050919050565b6000613002600d836139be565b91507f576166666c65206275726e6564000000000000000000000000000000000000006000830152602082019050919050565b6000613042601a836139be565b91507f576166666c65206e616d652063616e277420626520656d7074790000000000006000830152602082019050919050565b6000613082601d836139be565b91507f4c617374206c61796572206d75737420626520637573746f6d697a65640000006000830152602082019050919050565b60006130c26026836139be565b91507f436f6d7065746974696f6e2068617320616c7265616479206265656e20636f6e60008301527f636c7564656400000000000000000000000000000000000000000000000000006020830152604082019050919050565b60006131286019836139be565b91507f5468697320776166666c6520646f65736e2774206578697374000000000000006000830152602082019050919050565b60006131686024836139be565b91507f43616e277420766f746520666f72207468652073616d6520776166666c65207460008301527f77696365000000000000000000000000000000000000000000000000000000006020830152604082019050919050565b60006131ce601f836139be565b91507f4d6178206465736372697074696f6e206c656e677468206578636565646564006000830152602082019050919050565b600061320e6029836139be565b91507f596f752063616e6e6f7420616464206d6f7265206c617965727320746f20746860008301527f697320776166666c6500000000000000000000000000000000000000000000006020830152604082019050919050565b6000613274602f836139be565b91507f4d7573742068617665207075626c6973686564206174206c65617374206f6e6560008301527f20776166666c6520746f20766f746500000000000000000000000000000000006020830152604082019050919050565b60006132da6022836139be565b91507f4d617820766f746573206f6e2074686973206163636f756e742065786365656460008301527f65640000000000000000000000000000000000000000000000000000000000006020830152604082019050919050565b60006133406023836139be565b91507f4e6f742077697468696e2074686520637573746f6d697a6174696f6e2077696e60008301527f646f7700000000000000000000000000000000000000000000000000000000006020830152604082019050919050565b60006133a66018836139be565b91507f4d6178206e616d65206c656e67746820657863656564656400000000000000006000830152602082019050919050565b60006133e6601b836139be565b91507f436f6d7065746974696f6e206d757374206861766520656e64656400000000006000830152602082019050919050565b6000613426601c836139be565b91507f416c6c20637573746f6d697a6174696f6e20737465707320646f6e65000000006000830152602082019050919050565b60006134666025836139be565b91507f4174206c65617374206f6e65206c61796572206d75737420626520637573746f60008301527f6d697a65640000000000000000000000000000000000000000000000000000006020830152604082019050919050565b6040820160008201516134d560008501826134ee565b5060208201516134e860208501826134ee565b50505050565b6134f781613a20565b82525050565b61350681613a20565b82525050565b60006020820190506135216000830184612d6d565b92915050565b60006101408201905061353d600083018d612d6d565b818103602083015261354f818c612e56565b90508181036040830152613563818b612e56565b9050613572606083018a6134fd565b61357f60808301896134fd565b61358c60a08301886134fd565b61359960c08301876134fd565b6135a660e0830186612e38565b6135b4610100830185612e47565b8181036101208301526135c78184612d7c565b90509b9a5050505050505050505050565b600060608201905081810360008301526135f28186612dda565b905081810360208301526136068185612dda565b905061361560408301846134fd565b949350505050565b600060408201905081810360008301526136378185612e56565b905061364660208301846134fd565b9392505050565b6000602082019050818103600083015261366681612e8f565b9050919050565b6000602082019050818103600083015261368681612ecf565b9050919050565b600060208201905081810360008301526136a681612f0f565b9050919050565b600060208201905081810360008301526136c681612f4f565b9050919050565b600060208201905081810360008301526136e681612fb5565b9050919050565b6000602082019050818103600083015261370681612ff5565b9050919050565b6000602082019050818103600083015261372681613035565b9050919050565b6000602082019050818103600083015261374681613075565b9050919050565b60006020820190508181036000830152613766816130b5565b9050919050565b600060208201905081810360008301526137868161311b565b9050919050565b600060208201905081810360008301526137a68161315b565b9050919050565b600060208201905081810360008301526137c6816131c1565b9050919050565b600060208201905081810360008301526137e681613201565b9050919050565b6000602082019050818103600083015261380681613267565b9050919050565b60006020820190508181036000830152613826816132cd565b9050919050565b6000602082019050818103600083015261384681613333565b9050919050565b6000602082019050818103600083015261386681613399565b9050919050565b60006020820190508181036000830152613886816133d9565b9050919050565b600060208201905081810360008301526138a681613419565b9050919050565b600060208201905081810360008301526138c681613459565b9050919050565b60006020820190506138e260008301846134fd565b92915050565b6000604051905081810181811067ffffffffffffffff8211171561390b57600080fd5b8060405250919050565b600067ffffffffffffffff82111561392c57600080fd5b601f19601f8301169050602081019050919050565b6000819050602082019050919050565b6000819050602082019050919050565b600081519050919050565b600081519050919050565b600081519050919050565b6000602082019050919050565b6000602082019050919050565b600082825260208201905092915050565b600082825260208201905092915050565b600082825260208201905092915050565b60006139da82613a00565b9050919050565b60008115159050919050565b60008190506139fb82613a8f565b919050565b600073ffffffffffffffffffffffffffffffffffffffff82169050919050565b6000819050919050565b6000613a35826139ed565b9050919050565b82818337600083830152505050565b60005b83811015613a69578082015181840152602081019050613a4e565b83811115613a78576000848401525b50505050565b6000601f19601f8301169050919050565b60068110613a9957fe5b50565b613aa5816139cf565b8114613ab057600080fd5b50565b613abc81613a20565b8114613ac757600080fd5b5056fea264697066735822122072650c0bcb73d2177a9c01dc8d857efbc6283bda6849cf939dab08577b9bddd364736f6c634300060c0033",
  "immutableReferences": {},
  "source": "pragma solidity ^0.6.0;\npragma experimental ABIEncoderV2;\n\ncontract WaffleMaker {\n    // ******************** CONSTANTS ***********************\n    uint constant MAX_NAME_BYTES = 20;\n    uint constant MAX_DESCRIPTION_BYTES = 75;\n    uint constant MAX_WAFFLE_LAYERS = 5;\n    uint constant MAX_VOTES_PER_ACCOUNT = 3;\n    uint constant COMPETITION_DURATION = 60 * 60 * 24 * 30;\n    uint constant BAKE_DURATION = 10;//60 * 60 * 24;\n    uint constant CUSTOMIZE_DURATION = 120;//60 * 60 * 24;\n    uint constant CUSTOMIZATION_STEPS_COUNT = 6;\n    uint constant CUSTOMIZATION_STEP_WINDOW_DURATION = 30;//60 * 60;\n    uint24[CUSTOMIZATION_STEPS_COUNT] CUSTOMIZATION_STEP_WINDOWS = [\n        0,//0,\n        30,//60 * 60,\n        60,//60 * 60 * 9,\n        90,//60 * 60 * 17,\n        120,//60 * 60 * 24,\n        0\n    ];\n\n    // ******************** DATA ***********************\n    // Static data\n    address public admin; // Also the address to which the 10% dev fund is sent to\n    uint public competitionEndTimestamp;\n\n    // Semi static data\n    WaffleItem[] public toppings;\n    WaffleItem[] public bases;\n    WaffleItem[] public plates;\n    WaffleItem[] public extras;\n\n    // Variable data\n    Waffle[] waffles;\n    uint[] publishedWaffles;\n    mapping(address => AccountProfile) profiles;\n    bool competitionConcluded;\n\n    // ******************** STRUCTS ***********************\n    enum CustomizationStep {\n        NOT_CUSTOMIZED,\n        PLATE,\n        BASE,\n        TOPPING,\n        EXTRA,\n        DONE\n    }\n\n    struct WaffleItem {\n        string name;\n        uint price;\n    }\n\n    struct WaffleLayer {\n        uint baseId;\n        uint toppingId;\n    }\n\n    struct Waffle {\n        address owner;\n        uint votes;\n        string name;\n        string description;\n        uint plateId;\n        uint extraId;\n        mapping(uint => WaffleLayer) layers;\n        uint layersCount;\n        bool published;\n        CustomizationStep customizationStep;\n        uint processEnd; // Saves the Unix timestamp at which either the baking or customization ends\n    }\n\n    struct AccountProfile {\n        mapping(uint => uint) ownedWaffles;\n        uint ownedWafflesCount;\n        mapping(uint => uint) votedWaffles;\n        uint votedWafflesCount;\n        uint publishedWafflesCount;\n    }\n\n    // ******************** MODIFIERS ***********************\n    modifier competitionIsOngoing {\n        require(block.timestamp < competitionEndTimestamp, \"Competition must be ongoing\");\n        _;\n    }\n\n    modifier competitionHasEnded {\n        require(block.timestamp >= competitionEndTimestamp, \"Competition must have ended\");\n        _;\n    }\n\n    modifier waffleExists(uint waffleId) {\n        require(waffleId < waffles.length, \"This waffle doesn't exist\");\n        _;\n    }\n\n    modifier waffleIsPublished(bool positive, uint waffleId) {\n        require(waffles[waffleId].published == positive, \"Invalid published state\");\n        _;\n    }\n\n    modifier senderOwnsWaffle(bool positive, uint waffleId) {\n        bool waffleOwned = false;\n        for (uint i = 0; i < profiles[msg.sender].ownedWafflesCount; i++) {\n            if (profiles[msg.sender].ownedWaffles[i] == waffleId) {\n                waffleOwned = true;\n            }\n        }\n        require(waffleOwned == positive, \"Invalid waffle owner\");\n        _;\n    }\n\n    // ******************** CONSTRUCTOR ***********************\n    constructor() public {\n        admin = msg.sender;\n        competitionEndTimestamp = block.timestamp + COMPETITION_DURATION;\n\n        toppings.push(WaffleItem('Empty', 0));\n        bases.push(WaffleItem('Empty', 0));\n        plates.push(WaffleItem('Plain Plate', 0));\n        extras.push(WaffleItem('Empty', 0));\n    }\n\n    // ******************** SEND FUNCTIONS ***********************\n    function createWaffle() external competitionIsOngoing {\n        waffles.push(Waffle({\n            owner: msg.sender,\n            votes: 0,\n            name: \"\",\n            description: \"\",\n            plateId: 0,\n            extraId: 0,\n            layersCount: 0,\n            published: false,\n            processEnd: block.timestamp + BAKE_DURATION,\n            customizationStep: CustomizationStep.NOT_CUSTOMIZED\n        }));\n        addWaffleLayer(waffles.length - 1);\n\n        profiles[msg.sender].ownedWaffles[profiles[msg.sender].ownedWafflesCount++] = waffles.length - 1;\n    }\n\n    /**\n    *   Add a new layer to the waffleId provided if the waffle is owned by the sender and if last\n    *   layer has been customized\n    **/\n    function bakeWaffleLayer(uint waffleId) external competitionIsOngoing waffleExists(waffleId) senderOwnsWaffle(true, waffleId) {\n        require(waffles[waffleId].customizationStep == CustomizationStep.DONE, \"Last layer must be customized\");\n        require(block.timestamp > waffles[waffleId].processEnd, \"Waffle already being processed\");\n        addWaffleLayer(waffleId);\n        waffles[waffleId].processEnd = block.timestamp + BAKE_DURATION;\n    }\n\n    function submitWaffleCustomization(uint waffleId, string memory name, string memory description, uint baseId, uint toppingId, uint extraId, uint plateId) external competitionIsOngoing waffleExists(waffleId) senderOwnsWaffle(true, waffleId) {\n        require(waffles[waffleId].customizationStep == CustomizationStep.NOT_CUSTOMIZED, \"Last layer must not already be customized\");\n\n        if (waffles[waffleId].layersCount <= 1) {\n            require(stringIsNotEmpty(name), \"Waffle name can't be empty\");\n            require(stringSizeLowerOrEqual(name, MAX_NAME_BYTES), \"Max name length exceeded\");\n            require(stringSizeLowerOrEqual(description, MAX_DESCRIPTION_BYTES), \"Max description length exceeded\");\n\n            waffles[waffleId].name = name;\n            waffles[waffleId].description = description;\n            waffles[waffleId].plateId = plateId;\n            waffles[waffleId].extraId = extraId;\n        }\n        uint lastLayerIndex = waffles[waffleId].layersCount - 1;\n        waffles[waffleId].layers[lastLayerIndex].baseId = baseId;\n        waffles[waffleId].layers[lastLayerIndex].toppingId = toppingId;\n        waffles[waffleId].processEnd = block.timestamp + CUSTOMIZE_DURATION;\n        calculateNextWaffleCustomizationStep(waffleId);\n    }\n\n    function advanceWaffleCustomizationStep(uint waffleId) external competitionIsOngoing waffleExists(waffleId) senderOwnsWaffle(true, waffleId) waffleIsPublished(false, waffleId)  {\n        require(waffles[waffleId].customizationStep < CustomizationStep.DONE, 'All customization steps done');\n        uint stepNumber = uint(waffles[waffleId].customizationStep);\n        uint processStart = waffles[waffleId].processEnd - CUSTOMIZE_DURATION;\n        uint customizationWindowEnd = processStart + CUSTOMIZATION_STEP_WINDOWS[stepNumber];\n        uint customizationWindowStart = customizationWindowEnd - CUSTOMIZATION_STEP_WINDOW_DURATION;\n        require(block.timestamp > customizationWindowStart, 'Not within the customization window');\n        require(block.timestamp < customizationWindowEnd, 'Waffle burned');\n\n        calculateNextWaffleCustomizationStep(waffleId);\n    }\n\n    /**\n    *   Makes a waffle available for voting and blocks further customization\n    **/\n    function publishWaffle(uint waffleId) external competitionIsOngoing waffleExists(waffleId) senderOwnsWaffle(true, waffleId) waffleIsPublished(false, waffleId) {\n        require(waffles[waffleId].customizationStep == CustomizationStep.DONE, 'At least one layer must be customized');\n        waffles[waffleId].published = true;\n        publishedWaffles.push(waffleId);\n        profiles[msg.sender].publishedWafflesCount++;\n    }\n\n    /**\n    *   Cast a vote for the waffleId provided from the sender account.\n    *\n    *   Waffle must be published by calling publishWaffle to be voted on\n    *\n    *   No more than MAX_VOTES_PER_ACCOUNT votes can be cast per account.\n    **/\n    function voteWaffle(uint waffleId) external competitionIsOngoing waffleExists(waffleId) senderOwnsWaffle(false, waffleId) waffleIsPublished(true, waffleId) {\n        require(profiles[msg.sender].publishedWafflesCount > 0, \"Must have published at least one waffle to vote\");\n        require(profiles[msg.sender].votedWafflesCount < MAX_VOTES_PER_ACCOUNT, \"Max votes on this account exceeded\");\n        require(!accountHasVotedOnWaffle(msg.sender, waffleId), \"Can't vote for the same waffle twice\");\n\n        waffles[waffleId].votes++;\n        profiles[msg.sender].votedWaffles[profiles[msg.sender].votedWafflesCount++] = waffleId;\n    }\n\n    /**\n    *   Concludes the competition and distributes the rewards to the owner\n    *   of the waffle with the most votes\n    *\n    *   Can be called by anyone past the competition end timestamp\n    **/\n    function concludeCompetition() external competitionHasEnded {\n        require(!competitionConcluded, \"Competition has already been concluded\");\n\n        competitionConcluded = true;\n    }\n\n    // ******************** VIEW FUNCTIONS ***********************\n    /**\n    *   Returns the data of the waffle associated to a waffle id\n    **/\n    function getWaffleInfo(uint waffleId) external view waffleExists(waffleId) returns (address owner, string memory name, string memory description, uint votes, uint extraId, uint plateId, uint processEnd, bool published, CustomizationStep customizationStep, WaffleLayer[] memory layers)  {\n        Waffle memory waffle = waffles[waffleId];\n        WaffleLayer[] memory waffleLayers = new WaffleLayer[](waffle.layersCount);\n        for (uint i = 0; i < waffle.layersCount; i++) {\n            waffleLayers[i] = waffles[waffleId].layers[i];\n        }\n        return (waffle.owner, waffle.name, waffle.description, waffle.votes, waffle.extraId, waffle.plateId, waffle.processEnd, waffle.published, waffle.customizationStep, waffleLayers);\n    }\n\n    /**\n    *   Returns the profile data associated to an address\n    **/\n    function getProfileInfo(address addr) external view returns (uint[] memory ownedWaffleIds, uint[] memory votedWaffleIds, uint publishedWafflesCount) {\n        uint[] memory profileOwnedWaffles = new uint[](profiles[addr].ownedWafflesCount);\n        for (uint i = 0; i < profiles[addr].ownedWafflesCount; i++) {\n            profileOwnedWaffles[i] = profiles[addr].ownedWaffles[i];\n        }\n\n        uint[] memory profileVotedWaffles = new uint[](profiles[addr].votedWafflesCount);\n        for (uint i = 0; i < profiles[addr].votedWafflesCount; i++) {\n            profileVotedWaffles[i] = profiles[addr].votedWaffles[i];\n        }\n        return (profileOwnedWaffles, profileVotedWaffles, profiles[addr].publishedWafflesCount);\n    }\n\n    // ******************** INTERNAL FUNCTIONS ***********************\n    function stringIsNotEmpty(string memory str) internal returns(bool) {\n        bytes memory strBytes = bytes(str);\n        return strBytes.length > 0;\n    }\n\n    function stringSizeLowerOrEqual(string memory str, uint size) internal returns(bool) {\n        bytes memory strBytes = bytes(str);\n        return strBytes.length <= size;\n    }\n\n    function addWaffleLayer(uint waffleId) internal {\n        require(waffles[waffleId].layersCount < MAX_WAFFLE_LAYERS, \"You cannot add more layers to this waffle\");\n        waffles[waffleId].layers[waffles[waffleId].layersCount++] = WaffleLayer(0,0);\n        waffles[waffleId].customizationStep = CustomizationStep.NOT_CUSTOMIZED;\n    }\n\n    function waffleCustomizationStepCanBeSkipped(uint waffleId) internal returns(bool) {\n        if (waffles[waffleId].layersCount == 1) {\n            if (waffles[waffleId].customizationStep == CustomizationStep.PLATE && waffles[waffleId].plateId == 0) {\n                return true;\n            } else if(waffles[waffleId].customizationStep == CustomizationStep.EXTRA && waffles[waffleId].extraId == 0) {\n                return true;\n            } else if(waffles[waffleId].customizationStep == CustomizationStep.BASE && waffles[waffleId].layers[waffles[waffleId].layersCount - 1].baseId == 0) {\n                return true;\n            } else if(waffles[waffleId].customizationStep == CustomizationStep.TOPPING && waffles[waffleId].layers[waffles[waffleId].layersCount - 1].toppingId == 0) {\n                return true;\n            } else {\n                return false;\n            }\n        } else {\n            if (waffles[waffleId].customizationStep == CustomizationStep.PLATE) {\n                return true;\n            } else if(waffles[waffleId].customizationStep == CustomizationStep.EXTRA) {\n                return true;\n            } else if(waffles[waffleId].customizationStep == CustomizationStep.BASE && waffles[waffleId].layers[waffles[waffleId].layersCount - 1].baseId == 0) {\n                return true;\n            } else if(waffles[waffleId].customizationStep == CustomizationStep.TOPPING && waffles[waffleId].layers[waffles[waffleId].layersCount - 1].toppingId == 0) {\n                return true;\n            } else {\n                return false;\n            }\n        }\n    }\n\n    function calculateNextWaffleCustomizationStep(uint waffleId) internal {\n        do {\n            uint newStepNumber = uint(waffles[waffleId].customizationStep) + 1;\n            waffles[waffleId].customizationStep = CustomizationStep(newStepNumber);\n        } while (waffleCustomizationStepCanBeSkipped(waffleId));\n    }\n\n    function accountHasVotedOnWaffle(address account, uint waffleId) internal returns(bool) {\n        for (uint i = 0; i < profiles[account].votedWafflesCount; i++) {\n            if (profiles[account].votedWaffles[i] == waffleId) {\n                return true;\n            }\n        }\n        return false;\n    }\n}\n",
  "sourcePath": "/home/yannpelletier/PhpstormProjects/wafflehouse/contracts/WaffleMaker.sol",
  "compiler": {
    "name": "solc",
    "version": "0.6.12+commit.27d51765.Emscripten.clang"
  },
  "schemaVersion": "3.3.2",
  "updatedAt": "2020-11-27T13:31:35.372Z",
  "networkType": "ethereum",
  "devdoc": {
    "kind": "dev",
    "methods": {},
    "version": 1
  },
  "userdoc": {
    "kind": "user",
    "methods": {
      "bakeWaffleLayer(uint256)": {
        "notice": "Add a new layer to the waffleId provided if the waffle is owned by the sender and if last   layer has been customized*"
      },
      "concludeCompetition()": {
        "notice": "Concludes the competition and distributes the rewards to the owner   of the waffle with the most votes   Can be called by anyone past the competition end timestamp*"
      },
      "getProfileInfo(address)": {
        "notice": "Returns the profile data associated to an address*"
      },
      "getWaffleInfo(uint256)": {
        "notice": "Returns the data of the waffle associated to a waffle id*"
      },
      "publishWaffle(uint256)": {
        "notice": "Makes a waffle available for voting and blocks further customization*"
      },
      "voteWaffle(uint256)": {
        "notice": "Cast a vote for the waffleId provided from the sender account.   Waffle must be published by calling publishWaffle to be voted on   No more than MAX_VOTES_PER_ACCOUNT votes can be cast per account.*"
      }
    },
    "version": 1
  }
}