{
  "contractName": "WaffleMaker",
  "abi": [
    {
      "inputs": [],
      "stateMutability": "nonpayable",
      "type": "constructor"
    },
    {
      "inputs": [],
      "name": "admin",
      "outputs": [
        {
          "internalType": "address",
          "name": "",
          "type": "address"
        }
      ],
      "stateMutability": "view",
      "type": "function",
      "constant": true
    },
    {
      "inputs": [
        {
          "internalType": "uint256",
          "name": "",
          "type": "uint256"
        }
      ],
      "name": "bases",
      "outputs": [
        {
          "internalType": "string",
          "name": "name",
          "type": "string"
        },
        {
          "internalType": "uint256",
          "name": "price",
          "type": "uint256"
        }
      ],
      "stateMutability": "view",
      "type": "function",
      "constant": true
    },
    {
      "inputs": [
        {
          "internalType": "uint256",
          "name": "",
          "type": "uint256"
        }
      ],
      "name": "extras",
      "outputs": [
        {
          "internalType": "string",
          "name": "name",
          "type": "string"
        },
        {
          "internalType": "uint256",
          "name": "price",
          "type": "uint256"
        }
      ],
      "stateMutability": "view",
      "type": "function",
      "constant": true
    },
    {
      "inputs": [
        {
          "internalType": "uint256",
          "name": "",
          "type": "uint256"
        }
      ],
      "name": "plates",
      "outputs": [
        {
          "internalType": "string",
          "name": "name",
          "type": "string"
        },
        {
          "internalType": "uint256",
          "name": "price",
          "type": "uint256"
        }
      ],
      "stateMutability": "view",
      "type": "function",
      "constant": true
    },
    {
      "inputs": [
        {
          "internalType": "uint256",
          "name": "",
          "type": "uint256"
        }
      ],
      "name": "toppings",
      "outputs": [
        {
          "internalType": "string",
          "name": "name",
          "type": "string"
        },
        {
          "internalType": "uint256",
          "name": "price",
          "type": "uint256"
        }
      ],
      "stateMutability": "view",
      "type": "function",
      "constant": true
    },
    {
      "inputs": [],
      "name": "createWaffle",
      "outputs": [],
      "stateMutability": "nonpayable",
      "type": "function"
    },
    {
      "inputs": [
        {
          "internalType": "uint256",
          "name": "waffleId",
          "type": "uint256"
        }
      ],
      "name": "bakeWaffleLayer",
      "outputs": [],
      "stateMutability": "nonpayable",
      "type": "function"
    },
    {
      "inputs": [
        {
          "internalType": "uint256",
          "name": "waffleId",
          "type": "uint256"
        },
        {
          "internalType": "uint256",
          "name": "baseId",
          "type": "uint256"
        },
        {
          "internalType": "uint256",
          "name": "toppingId",
          "type": "uint256"
        },
        {
          "internalType": "uint256",
          "name": "extraId",
          "type": "uint256"
        },
        {
          "internalType": "uint256",
          "name": "plateId",
          "type": "uint256"
        }
      ],
      "name": "customizeWaffleLayer",
      "outputs": [],
      "stateMutability": "nonpayable",
      "type": "function"
    },
    {
      "inputs": [
        {
          "internalType": "uint256",
          "name": "waffleId",
          "type": "uint256"
        }
      ],
      "name": "addWaffleIngredient",
      "outputs": [],
      "stateMutability": "nonpayable",
      "type": "function"
    },
    {
      "inputs": [
        {
          "internalType": "uint256",
          "name": "waffleId",
          "type": "uint256"
        }
      ],
      "name": "voteWaffle",
      "outputs": [],
      "stateMutability": "nonpayable",
      "type": "function"
    },
    {
      "inputs": [],
      "name": "concludeCompetition",
      "outputs": [],
      "stateMutability": "nonpayable",
      "type": "function"
    },
    {
      "inputs": [
        {
          "internalType": "uint256",
          "name": "waffleId",
          "type": "uint256"
        }
      ],
      "name": "getWaffleInfo",
      "outputs": [
        {
          "internalType": "address",
          "name": "owner",
          "type": "address"
        },
        {
          "internalType": "string",
          "name": "name",
          "type": "string"
        },
        {
          "internalType": "string",
          "name": "description",
          "type": "string"
        },
        {
          "internalType": "uint256",
          "name": "votes",
          "type": "uint256"
        },
        {
          "internalType": "uint256",
          "name": "extraId",
          "type": "uint256"
        },
        {
          "internalType": "uint256",
          "name": "plateId",
          "type": "uint256"
        },
        {
          "internalType": "uint256",
          "name": "actionStart",
          "type": "uint256"
        },
        {
          "internalType": "uint256",
          "name": "customizedLayersCount",
          "type": "uint256"
        },
        {
          "components": [
            {
              "internalType": "uint256",
              "name": "baseId",
              "type": "uint256"
            },
            {
              "internalType": "uint256",
              "name": "toppingId",
              "type": "uint256"
            }
          ],
          "internalType": "struct WaffleMaker.WaffleLayer[]",
          "name": "layers",
          "type": "tuple[]"
        }
      ],
      "stateMutability": "view",
      "type": "function",
      "constant": true
    },
    {
      "inputs": [
        {
          "internalType": "address",
          "name": "addr",
          "type": "address"
        }
      ],
      "name": "getProfileInfo",
      "outputs": [
        {
          "internalType": "uint256[]",
          "name": "ownedWaffleIds",
          "type": "uint256[]"
        },
        {
          "internalType": "uint256[]",
          "name": "votedWaffleIds",
          "type": "uint256[]"
        }
      ],
      "stateMutability": "view",
      "type": "function",
      "constant": true
    },
    {
      "inputs": [],
      "name": "getCompetitionEndTimestamp",
      "outputs": [
        {
          "internalType": "uint256",
          "name": "",
          "type": "uint256"
        }
      ],
      "stateMutability": "view",
      "type": "function",
      "constant": true
    }
  ],
  "bytecode": "0x60806040523480156200001157600080fd5b50336000806101000a81548173ffffffffffffffffffffffffffffffffffffffff021916908373ffffffffffffffffffffffffffffffffffffffff16021790555042600181905550600260405180604001604052806040518060400160405280600581526020017f456d7074790000000000000000000000000000000000000000000000000000008152508152602001600081525090806001815401808255809150506001900390600052602060002090600202016000909190919091506000820151816000019080519060200190620000ed929190620002e3565b50602082015181600101555050600360405180604001604052806040518060400160405280600581526020017f456d70747900000000000000000000000000000000000000000000000000000081525081526020016000815250908060018154018082558091505060019003906000526020600020906002020160009091909190915060008201518160000190805190602001906200018e929190620002e3565b50602082015181600101555050600460405180604001604052806040518060400160405280600581526020017f456d70747900000000000000000000000000000000000000000000000000000081525081526020016000815250908060018154018082558091505060019003906000526020600020906002020160009091909190915060008201518160000190805190602001906200022f929190620002e3565b50602082015181600101555050600560405180604001604052806040518060400160405280600581526020017f456d7074790000000000000000000000000000000000000000000000000000008152508152602001600081525090806001815401808255809150506001900390600052602060002090600202016000909190919091506000820151816000019080519060200190620002d0929190620002e3565b5060208201518160010155505062000389565b828054600181600116156101000203166002900490600052602060002090601f016020900481019282601f106200032657805160ff191683800117855562000357565b8280016001018555821562000357579182015b828111156200035657825182559160200191906001019062000339565b5b5090506200036691906200036a565b5090565b5b80821115620003855760008160009055506001016200036b565b5090565b61256880620003996000396000f3fe608060405234801561001057600080fd5b50600436106100ea5760003560e01c8063971c7f5a1161008c578063d01fa60c11610066578063d01fa60c14610267578063d03a322c14610298578063e62f9eb9146102b4578063f851a440146102be576100ea565b8063971c7f5a146101fe5780639dae4cf11461021a578063aa0282ec1461024b576100ea565b80635468bc2f116100c85780635468bc2f14610146578063664666731461017757806372041848146101955780639531c82f146101c6576100ea565b80630cacbec8146100ef5780630f3b22c0146100f9578063155caa321461012a575b600080fd5b6100f76102dc565b005b610113600480360381019061010e9190611b20565b610552565b60405161012192919061224b565b60405180910390f35b610144600480360381019061013f9190611b20565b61061b565b005b610160600480360381019061015b9190611b20565b61061e565b60405161016e92919061224b565b60405180910390f35b61017f6106e7565b60405161018c91906123db565b60405180910390f35b6101af60048036038101906101aa9190611b20565b6106f6565b6040516101bd92919061224b565b60405180910390f35b6101e060048036038101906101db9190611b20565b6107bf565b6040516101f599989796959493929190612172565b60405180910390f35b61021860048036038101906102139190611b20565b610b8c565b005b610234600480360381019061022f9190611af7565b610e9b565b604051610242929190612214565b60405180910390f35b61026560048036038101906102609190611b20565b611153565b005b610281600480360381019061027c9190611b20565b611288565b60405161028f92919061224b565b60405180910390f35b6102b260048036038101906102ad9190611b49565b611351565b005b6102bc6115fe565b005b6102c66116bb565b6040516102d39190612157565b60405180910390f35b600062278d0060015401905080421061032a576040517f08c379a00000000000000000000000000000000000000000000000000000000081526004016103219061227b565b60405180910390fd5b60066040518061012001604052803373ffffffffffffffffffffffffffffffffffffffff16815260200160008152602001428152602001604051806020016040528060008152508152602001604051806020016040528060008152508152602001600081526020016000815260200160008152602001600081525090806001815401808255809150506001900390600052602060002090600a020160009091909190915060008201518160000160006101000a81548173ffffffffffffffffffffffffffffffffffffffff021916908373ffffffffffffffffffffffffffffffffffffffff160217905550602082015181600101556040820151816002015560608201518160030190805190602001906104459291906119b4565b5060808201518160040190805190602001906104629291906119b4565b5060a0820151816005015560c0820151816006015560e082015181600801556101008201518160090155505061049f6001600680549050036116df565b600160068054905003600860003373ffffffffffffffffffffffffffffffffffffffff1673ffffffffffffffffffffffffffffffffffffffff1681526020019081526020016000206000016000600860003373ffffffffffffffffffffffffffffffffffffffff1673ffffffffffffffffffffffffffffffffffffffff16815260200190815260200160002060010160008154809291906001019190505581526020019081526020016000208190555050565b6002818154811061055f57fe5b9060005260206000209060020201600091509050806000018054600181600116156101000203166002900480601f01602080910402602001604051908101604052809291908181526020018280546001816001161561010002031660029004801561060b5780601f106105e05761010080835404028352916020019161060b565b820191906000526020600020905b8154815290600101906020018083116105ee57829003601f168201915b5050505050908060010154905082565b50565b6005818154811061062b57fe5b9060005260206000209060020201600091509050806000018054600181600116156101000203166002900480601f0160208091040260200160405190810160405280929190818152602001828054600181600116156101000203166002900480156106d75780601f106106ac576101008083540402835291602001916106d7565b820191906000526020600020905b8154815290600101906020018083116106ba57829003601f168201915b5050505050908060010154905082565b600062278d0060015401905090565b6003818154811061070357fe5b9060005260206000209060020201600091509050806000018054600181600116156101000203166002900480601f0160208091040260200160405190810160405280929190818152602001828054600181600116156101000203166002900480156107af5780601f10610784576101008083540402835291602001916107af565b820191906000526020600020905b81548152906001019060200180831161079257829003601f168201915b5050505050908060010154905082565b600060608060008060008060006060896006805490508110610816576040517f08c379a000000000000000000000000000000000000000000000000000000000815260040161080d906122db565b60405180910390fd5b6006805490508b1061085d576040517f08c379a0000000000000000000000000000000000000000000000000000000008152600401610854906122db565b60405180910390fd5b610865611a34565b60068c8154811061087257fe5b90600052602060002090600a0201604051806101200160405290816000820160009054906101000a900473ffffffffffffffffffffffffffffffffffffffff1673ffffffffffffffffffffffffffffffffffffffff1673ffffffffffffffffffffffffffffffffffffffff1681526020016001820154815260200160028201548152602001600382018054600181600116156101000203166002900480601f01602080910402602001604051908101604052809291908181526020018280546001816001161561010002031660029004801561098f5780601f106109645761010080835404028352916020019161098f565b820191906000526020600020905b81548152906001019060200180831161097257829003601f168201915b50505050508152602001600482018054600181600116156101000203166002900480601f016020809104026020016040519081016040528092919081815260200182805460018160011615610100020316600290048015610a315780601f10610a0657610100808354040283529160200191610a31565b820191906000526020600020905b815481529060010190602001808311610a1457829003601f168201915b50505050508152602001600582015481526020016006820154815260200160088201548152602001600982015481525050905060608160e0015167ffffffffffffffff81118015610a8157600080fd5b50604051908082528060200260200182016040528015610abb57816020015b610aa8611a96565b815260200190600190039081610aa05790505b50905060005b8260e00151811015610b3f5760068e81548110610ada57fe5b90600052602060002090600a0201600701600082815260200190815260200160002060405180604001604052908160008201548152602001600182015481525050828281518110610b2757fe5b60200260200101819052508080600101915050610ac1565b5081600001518260600151836080015184602001518560c001518660a001518760400151886101000151889b509b509b509b509b509b509b509b509b505050509193959799909294969850565b600062278d00600154019050804210610bda576040517f08c379a0000000000000000000000000000000000000000000000000000000008152600401610bd19061227b565b60405180910390fd5b816006805490508110610c22576040517f08c379a0000000000000000000000000000000000000000000000000000000008152600401610c19906122db565b60405180910390fd5b6000600860003373ffffffffffffffffffffffffffffffffffffffff1673ffffffffffffffffffffffffffffffffffffffff1681526020019081526020016000206001015411610ca7576040517f08c379a0000000000000000000000000000000000000000000000000000000008152600401610c9e9061235b565b60405180910390fd5b6003600860003373ffffffffffffffffffffffffffffffffffffffff1673ffffffffffffffffffffffffffffffffffffffff1681526020019081526020016000206003015410610d2c576040517f08c379a0000000000000000000000000000000000000000000000000000000008152600401610d239061237b565b60405180910390fd5b610d3633846117cc565b15610d76576040517f08c379a0000000000000000000000000000000000000000000000000000000008152600401610d6d9061229b565b60405180910390fd5b610d80338461189c565b15610dc0576040517f08c379a0000000000000000000000000000000000000000000000000000000008152600401610db79061231b565b60405180910390fd5b60068381548110610dcd57fe5b90600052602060002090600a02016001016000815480929190600101919050555082600860003373ffffffffffffffffffffffffffffffffffffffff1673ffffffffffffffffffffffffffffffffffffffff1681526020019081526020016000206002016000600860003373ffffffffffffffffffffffffffffffffffffffff1673ffffffffffffffffffffffffffffffffffffffff168152602001908152602001600020600301600081548092919060010191905055815260200190815260200160002081905550505050565b6060806060600860008573ffffffffffffffffffffffffffffffffffffffff1673ffffffffffffffffffffffffffffffffffffffff1681526020019081526020016000206001015467ffffffffffffffff81118015610ef957600080fd5b50604051908082528060200260200182016040528015610f285781602001602082028036833780820191505090505b50905060005b600860008673ffffffffffffffffffffffffffffffffffffffff1673ffffffffffffffffffffffffffffffffffffffff16815260200190815260200160002060010154811015610ff157600860008673ffffffffffffffffffffffffffffffffffffffff1673ffffffffffffffffffffffffffffffffffffffff168152602001908152602001600020600001600082815260200190815260200160002054828281518110610fd857fe5b6020026020010181815250508080600101915050610f2e565b506060600860008673ffffffffffffffffffffffffffffffffffffffff1673ffffffffffffffffffffffffffffffffffffffff1681526020019081526020016000206003015467ffffffffffffffff8111801561104d57600080fd5b5060405190808252806020026020018201604052801561107c5781602001602082028036833780820191505090505b50905060005b600860008773ffffffffffffffffffffffffffffffffffffffff1673ffffffffffffffffffffffffffffffffffffffff1681526020019081526020016000206003015481101561114557600860008773ffffffffffffffffffffffffffffffffffffffff1673ffffffffffffffffffffffffffffffffffffffff16815260200190815260200160002060020160008281526020019081526020016000205482828151811061112c57fe5b6020026020010181815250508080600101915050611082565b508181935093505050915091565b600062278d006001540190508042106111a1576040517f08c379a00000000000000000000000000000000000000000000000000000000081526004016111989061227b565b60405180910390fd5b8160068054905081106111e9576040517f08c379a00000000000000000000000000000000000000000000000000000000081526004016111e0906122db565b60405180910390fd5b6111f333846117cc565b611232576040517f08c379a00000000000000000000000000000000000000000000000000000000081526004016112299061239b565b60405180910390fd5b61123b8361196c565b61127a576040517f08c379a00000000000000000000000000000000000000000000000000000000081526004016112719061233b565b60405180910390fd5b611283836116df565b505050565b6004818154811061129557fe5b9060005260206000209060020201600091509050806000018054600181600116156101000203166002900480601f0160208091040260200160405190810160405280929190818152602001828054600181600116156101000203166002900480156113415780601f1061131657610100808354040283529160200191611341565b820191906000526020600020905b81548152906001019060200180831161132457829003601f168201915b5050505050908060010154905082565b600062278d0060015401905080421061139f576040517f08c379a00000000000000000000000000000000000000000000000000000000081526004016113969061227b565b60405180910390fd5b8560068054905081106113e7576040517f08c379a00000000000000000000000000000000000000000000000000000000081526004016113de906122db565b60405180910390fd5b6113f133886117cc565b611430576040517f08c379a00000000000000000000000000000000000000000000000000000000081526004016114279061239b565b60405180910390fd5b6114398761196c565b15611479576040517f08c379a00000000000000000000000000000000000000000000000000000000081526004016114709061233b565b60405180910390fd5b60016006888154811061148857fe5b90600052602060002090600a0201600801541161150f5782600688815481106114ad57fe5b90600052602060002090600a02016005018190555083600688815481106114d057fe5b90600052602060002090600a02016006018190555060078790806001815401808255809150506001900390600052602060002001600090919091909150555b600060016006898154811061152057fe5b90600052602060002090600a020160080154039050866006898154811061154357fe5b90600052602060002090600a0201600701600083815260200190815260200160002060000181905550856006898154811061157a57fe5b90600052602060002090600a0201600701600083815260200190815260200160002060010181905550600688815481106115b057fe5b90600052602060002090600a02016009016000815480929190600101919050555042600689815481106115df57fe5b90600052602060002090600a0201600201819055505050505050505050565b600062278d006001540190508042101561164d576040517f08c379a0000000000000000000000000000000000000000000000000000000008152600401611644906123bb565b60405180910390fd5b600960009054906101000a900460ff161561169d576040517f08c379a0000000000000000000000000000000000000000000000000000000008152600401611694906122bb565b60405180910390fd5b6001600960006101000a81548160ff02191690831515021790555050565b60008054906101000a900473ffffffffffffffffffffffffffffffffffffffff1681565b6005600682815481106116ee57fe5b90600052602060002090600a02016008015410611740576040517f08c379a0000000000000000000000000000000000000000000000000000000008152600401611737906122fb565b60405180910390fd5b60405180604001604052806000815260200160008152506006828154811061176457fe5b90600052602060002090600a020160070160006006848154811061178457fe5b90600052602060002090600a02016008016000815480929190600101919050558152602001908152602001600020600082015181600001556020820151816001015590505050565b600080600090505b600860008573ffffffffffffffffffffffffffffffffffffffff1673ffffffffffffffffffffffffffffffffffffffff168152602001908152602001600020600101548110156118905782600860008673ffffffffffffffffffffffffffffffffffffffff1673ffffffffffffffffffffffffffffffffffffffff1681526020019081526020016000206000016000838152602001908152602001600020541415611883576001915050611896565b80806001019150506117d4565b50600090505b92915050565b600080600090505b600860008573ffffffffffffffffffffffffffffffffffffffff1673ffffffffffffffffffffffffffffffffffffffff168152602001908152602001600020600301548110156119605782600860008673ffffffffffffffffffffffffffffffffffffffff1673ffffffffffffffffffffffffffffffffffffffff1681526020019081526020016000206002016000838152602001908152602001600020541415611953576001915050611966565b80806001019150506118a4565b50600090505b92915050565b60006006828154811061197b57fe5b90600052602060002090600a0201600901546006838154811061199a57fe5b90600052602060002090600a020160080154149050919050565b828054600181600116156101000203166002900490600052602060002090601f016020900481019282601f106119f557805160ff1916838001178555611a23565b82800160010185558215611a23579182015b82811115611a22578251825591602001919060010190611a07565b5b509050611a309190611ab0565b5090565b604051806101200160405280600073ffffffffffffffffffffffffffffffffffffffff16815260200160008152602001600081526020016060815260200160608152602001600081526020016000815260200160008152602001600081525090565b604051806040016040528060008152602001600081525090565b5b80821115611ac9576000816000905550600101611ab1565b5090565b600081359050611adc81612504565b92915050565b600081359050611af18161251b565b92915050565b600060208284031215611b0957600080fd5b6000611b1784828501611acd565b91505092915050565b600060208284031215611b3257600080fd5b6000611b4084828501611ae2565b91505092915050565b600080600080600060a08688031215611b6157600080fd5b6000611b6f88828901611ae2565b9550506020611b8088828901611ae2565b9450506040611b9188828901611ae2565b9350506060611ba288828901611ae2565b9250506080611bb388828901611ae2565b9150509295509295909350565b6000611bcc838361210a565b60408301905092915050565b6000611be48383612139565b60208301905092915050565b611bf981612484565b82525050565b6000611c0a82612416565b611c148185612451565b9350611c1f836123f6565b8060005b83811015611c50578151611c378882611bc0565b9750611c4283612437565b925050600181019050611c23565b5085935050505092915050565b6000611c6882612421565b611c728185612462565b9350611c7d83612406565b8060005b83811015611cae578151611c958882611bd8565b9750611ca083612444565b925050600181019050611c81565b5085935050505092915050565b6000611cc68261242c565b611cd08185612473565b9350611ce08185602086016124c0565b611ce9816124f3565b840191505092915050565b6000611d01601b83612473565b91507f436f6d7065746974696f6e206d757374206265206f6e676f696e6700000000006000830152602082019050919050565b6000611d41602283612473565b91507f596f752063616e277420766f746520666f7220796f7572206f776e207761666660008301527f6c650000000000000000000000000000000000000000000000000000000000006020830152604082019050919050565b6000611da7602683612473565b91507f436f6d7065746974696f6e2068617320616c7265616479206265656e20636f6e60008301527f636c7564656400000000000000000000000000000000000000000000000000006020830152604082019050919050565b6000611e0d601983612473565b91507f5468697320776166666c6520646f65736e2774206578697374000000000000006000830152602082019050919050565b6000611e4d602983612473565b91507f596f752063616e6e6f7420616464206d6f7265206c617965727320746f20746860008301527f697320776166666c6500000000000000000000000000000000000000000000006020830152604082019050919050565b6000611eb3602883612473565b91507f596f752063616e277420766f746520666f72207468652073616d65207761666660008301527f6c652074776963650000000000000000000000000000000000000000000000006020830152604082019050919050565b6000611f19604983612473565b91507f596f752063616e2774206164642061206e6577206c617965722069662074686560008301527f206c61737420776166666c65206c61796572206861736e2774206265656e206360208301527f7573746f6d697a656400000000000000000000000000000000000000000000006040830152606082019050919050565b6000611fa5602b83612473565b91507f596f75206d75737420637265617465206174206c65617374206f6e652077616660008301527f666c6520746f20766f74650000000000000000000000000000000000000000006020830152604082019050919050565b600061200b602283612473565b91507f4d617820766f746573206f6e2074686973206163636f756e742065786365656460008301527f65640000000000000000000000000000000000000000000000000000000000006020830152604082019050919050565b6000612071603283612473565b91507f596f752063616e27742062616b652061206c6179657220666f7220612077616660008301527f666c6520796f7520646f206e6f74206f776e00000000000000000000000000006020830152604082019050919050565b60006120d7601b83612473565b91507f436f6d7065746974696f6e206d757374206861766520656e64656400000000006000830152602082019050919050565b6040820160008201516121206000850182612139565b5060208201516121336020850182612139565b50505050565b612142816124b6565b82525050565b612151816124b6565b82525050565b600060208201905061216c6000830184611bf0565b92915050565b600061012082019050612188600083018c611bf0565b818103602083015261219a818b611cbb565b905081810360408301526121ae818a611cbb565b90506121bd6060830189612148565b6121ca6080830188612148565b6121d760a0830187612148565b6121e460c0830186612148565b6121f160e0830185612148565b8181036101008301526122048184611bff565b90509a9950505050505050505050565b6000604082019050818103600083015261222e8185611c5d565b905081810360208301526122428184611c5d565b90509392505050565b600060408201905081810360008301526122658185611cbb565b90506122746020830184612148565b9392505050565b6000602082019050818103600083015261229481611cf4565b9050919050565b600060208201905081810360008301526122b481611d34565b9050919050565b600060208201905081810360008301526122d481611d9a565b9050919050565b600060208201905081810360008301526122f481611e00565b9050919050565b6000602082019050818103600083015261231481611e40565b9050919050565b6000602082019050818103600083015261233481611ea6565b9050919050565b6000602082019050818103600083015261235481611f0c565b9050919050565b6000602082019050818103600083015261237481611f98565b9050919050565b6000602082019050818103600083015261239481611ffe565b9050919050565b600060208201905081810360008301526123b481612064565b9050919050565b600060208201905081810360008301526123d4816120ca565b9050919050565b60006020820190506123f06000830184612148565b92915050565b6000819050602082019050919050565b6000819050602082019050919050565b600081519050919050565b600081519050919050565b600081519050919050565b6000602082019050919050565b6000602082019050919050565b600082825260208201905092915050565b600082825260208201905092915050565b600082825260208201905092915050565b600061248f82612496565b9050919050565b600073ffffffffffffffffffffffffffffffffffffffff82169050919050565b6000819050919050565b60005b838110156124de5780820151818401526020810190506124c3565b838111156124ed576000848401525b50505050565b6000601f19601f8301169050919050565b61250d81612484565b811461251857600080fd5b50565b612524816124b6565b811461252f57600080fd5b5056fea264697066735822122074038bb77854f4bebf000f7c31b3f2d2a9d819b978bd1a0883d3a968989751f464736f6c634300060c0033",
  "immutableReferences": {},
  "source": "pragma solidity ^0.6.0;\r\npragma experimental ABIEncoderV2;\r\n\r\ncontract WaffleMaker {\r\n    // ******************** CONSTANTS ***********************\r\n    uint constant MAX_WAFFLE_LAYERS = 5;\r\n    uint constant MAX_VOTES_PER_ACCOUNT = 3;\r\n    uint constant COMPETITION_DURATION = 2592000; // 1 month duration\r\n\r\n    // ******************** DATA ***********************\r\n    // Static data\r\n    address public admin; // Also the address to which the 10% dev fund is sent to\r\n    uint competitionStart;\r\n\r\n    // Semi static data\r\n    WaffleItem[] public toppings;\r\n    WaffleItem[] public bases;\r\n    WaffleItem[] public plates;\r\n    WaffleItem[] public extras;\r\n\r\n    // Variable data\r\n    Waffle[] waffles;\r\n    uint[] customizedWaffles;\r\n    mapping(address => AccountProfile) profiles;\r\n    bool competitionConcluded;\r\n\r\n    // ******************** STRUCTS ***********************\r\n    struct WaffleItem {\r\n        string name;\r\n        uint price;\r\n    }\r\n\r\n    struct WaffleLayer {\r\n        uint baseId;\r\n        uint toppingId;\r\n    }\r\n\r\n    struct Waffle {\r\n        address owner;\r\n        uint votes;\r\n        uint actionStart; // Saves the Unix timestamp at which the either bake or customization started\r\n        string name;\r\n        string description;\r\n        uint plateId;\r\n        uint extraId;\r\n        mapping(uint => WaffleLayer) layers;\r\n        uint layersCount;\r\n        uint customizedLayersCount;\r\n    }\r\n\r\n    struct AccountProfile {\r\n        mapping(uint => uint) ownedWaffles;\r\n        uint ownedWafflesCount;\r\n        mapping(uint => uint) votedWaffles;\r\n        uint votedWafflesCount;\r\n    }\r\n\r\n    // ******************** MODIFIERS ***********************\r\n    modifier competitionIsOngoing {\r\n        uint endTimestamp = competitionStart + COMPETITION_DURATION;\r\n        require(block.timestamp < endTimestamp, \"Competition must be ongoing\");\r\n        _;\r\n    }\r\n\r\n    modifier competitionHasEnded {\r\n        uint endTimestamp = competitionStart + COMPETITION_DURATION;\r\n        require(block.timestamp >= endTimestamp, \"Competition must have ended\");\r\n        _;\r\n    }\r\n\r\n    modifier waffleExists(uint waffleId) {\r\n        require(waffleId < waffles.length, \"This waffle doesn't exist\");\r\n        _;\r\n    }\r\n\r\n    // ******************** CONSTRUCTOR ***********************\r\n    constructor() public {\r\n        admin = msg.sender;\r\n        competitionStart = block.timestamp;\r\n\r\n        toppings.push(WaffleItem('Empty', 0));\r\n        bases.push(WaffleItem('Empty', 0));\r\n        plates.push(WaffleItem('Empty', 0));\r\n        extras.push(WaffleItem('Empty', 0));\r\n    }\r\n\r\n    // ******************** SEND FUNCTIONS ***********************\r\n    function createWaffle() external competitionIsOngoing {\r\n        waffles.push(Waffle({\r\n            owner: msg.sender,\r\n            votes: 0,\r\n            actionStart: block.timestamp,\r\n            name: \"\",\r\n            description: \"\",\r\n            plateId: 0,\r\n            extraId: 0,\r\n            layersCount: 0,\r\n            customizedLayersCount: 0\r\n        }));\r\n        addWaffleLayer(waffles.length - 1);\r\n\r\n        profiles[msg.sender].ownedWaffles[profiles[msg.sender].ownedWafflesCount++] = waffles.length - 1;\r\n    }\r\n\r\n    /**\r\n    *   Add a new layer to the waffleId provided if the waffle is owned by the sender and if last\r\n    *   layer has been customized\r\n    **/\r\n    function bakeWaffleLayer(uint waffleId) external competitionIsOngoing waffleExists(waffleId) {\r\n        require(accountOwnsWaffle(msg.sender, waffleId), \"You can't bake a layer for a waffle you do not own\");\r\n        require(lastWaffleLayerIsCustomized(waffleId), \"You can't add a new layer if the last waffle layer hasn't been customized\");\r\n\r\n        addWaffleLayer(waffleId);\r\n    }\r\n\r\n    function customizeWaffleLayer(uint waffleId, uint baseId, uint toppingId, uint extraId, uint plateId) external competitionIsOngoing waffleExists(waffleId) {\r\n        require(accountOwnsWaffle(msg.sender, waffleId), \"You can't bake a layer for a waffle you do not own\");\r\n        require(!lastWaffleLayerIsCustomized(waffleId), \"You can't add a new layer if the last waffle layer hasn't been customized\");\r\n\r\n        if(waffles[waffleId].layersCount <= 1) {\r\n            waffles[waffleId].plateId = plateId;\r\n            waffles[waffleId].extraId = extraId;\r\n            customizedWaffles.push(waffleId);\r\n        }\r\n        uint lastLayerIndex = waffles[waffleId].layersCount - 1;\r\n        waffles[waffleId].layers[lastLayerIndex].baseId = baseId;\r\n        waffles[waffleId].layers[lastLayerIndex].toppingId = toppingId;\r\n        waffles[waffleId].customizedLayersCount++;\r\n        waffles[waffleId].actionStart = block.timestamp;\r\n    }\r\n\r\n    function addWaffleIngredient(uint waffleId) external {\r\n\r\n    }\r\n\r\n    /**\r\n    *   Cast a vote for the waffleId provided from the sender account.\r\n    *\r\n    *   No more than MAX_VOTES_PER_ACCOUNT votes can be cast per account.\r\n    **/\r\n    function voteWaffle(uint waffleId) external competitionIsOngoing waffleExists(waffleId) {\r\n        require(profiles[msg.sender].ownedWafflesCount > 0, \"You must create at least one waffle to vote\");\r\n        require(profiles[msg.sender].votedWafflesCount < MAX_VOTES_PER_ACCOUNT, \"Max votes on this account exceeded\");\r\n        require(!accountOwnsWaffle(msg.sender, waffleId), \"You can't vote for your own waffle\");\r\n        require(!accountHasVotedOnWaffle(msg.sender, waffleId), \"You can't vote for the same waffle twice\");\r\n\r\n        waffles[waffleId].votes++;\r\n        profiles[msg.sender].votedWaffles[profiles[msg.sender].votedWafflesCount++] = waffleId;\r\n    }\r\n\r\n    /**\r\n    *   Concludes the competition and distributes the rewards to the owner\r\n    *   of the waffle with the most votes\r\n    *\r\n    *   Can be called by anyone past the competition end timestamp\r\n    **/\r\n    function concludeCompetition() external competitionHasEnded {\r\n        require(!competitionConcluded, \"Competition has already been concluded\");\r\n\r\n        competitionConcluded = true;\r\n    }\r\n\r\n    // ******************** VIEW FUNCTIONS ***********************\r\n    /**\r\n    *   Returns the data of the waffle associated to a waffle id\r\n    **/\r\n    function getWaffleInfo(uint waffleId) external view waffleExists(waffleId) returns (address owner, string memory name, string memory description, uint votes, uint extraId, uint plateId, uint actionStart, uint customizedLayersCount, WaffleLayer[] memory layers)  {\r\n        require(waffleId < waffles.length, \"This waffle doesn't exist\");\r\n\r\n        Waffle memory waffle = waffles[waffleId];\r\n        WaffleLayer[] memory waffleLayers = new WaffleLayer[](waffle.layersCount);\r\n        for (uint i = 0; i < waffle.layersCount; i++) {\r\n            waffleLayers[i] = waffles[waffleId].layers[i];\r\n        }\r\n        return (waffle.owner, waffle.name, waffle.description, waffle.votes, waffle.extraId, waffle.plateId, waffle.actionStart, waffle.customizedLayersCount, waffleLayers);\r\n    }\r\n\r\n    /**\r\n    *   Returns the profile data associated to an address\r\n    **/\r\n    function getProfileInfo(address addr) external view returns (uint[] memory ownedWaffleIds, uint[] memory votedWaffleIds) {\r\n        uint[] memory profileOwnedWaffles = new uint[](profiles[addr].ownedWafflesCount);\r\n        for (uint i = 0; i < profiles[addr].ownedWafflesCount; i++) {\r\n            profileOwnedWaffles[i] = profiles[addr].ownedWaffles[i];\r\n        }\r\n\r\n        uint[] memory profileVotedWaffles = new uint[](profiles[addr].votedWafflesCount);\r\n        for (uint i = 0; i < profiles[addr].votedWafflesCount; i++) {\r\n            profileVotedWaffles[i] = profiles[addr].votedWaffles[i];\r\n        }\r\n        return (profileOwnedWaffles, profileVotedWaffles);\r\n    }\r\n\r\n    /**\r\n    *   Returns the timestamp at which the competition will end and concludeCompetition()\r\n    *   can be called by anyone to distribute the reward\r\n    **/\r\n    function getCompetitionEndTimestamp() external view returns (uint) {\r\n        return competitionStart + COMPETITION_DURATION;\r\n    }\r\n\r\n    // ******************** INTERNAL FUNCTIONS ***********************\r\n    function addWaffleLayer(uint waffleId) internal {\r\n        require(waffles[waffleId].layersCount < MAX_WAFFLE_LAYERS, \"You cannot add more layers to this waffle\");\r\n        waffles[waffleId].layers[waffles[waffleId].layersCount++] = WaffleLayer(0,0);\r\n    }\r\n\r\n    function lastWaffleLayerIsCustomized(uint waffleId) internal returns(bool) {\r\n        return waffles[waffleId].layersCount == waffles[waffleId].customizedLayersCount;\r\n    }\r\n\r\n    function accountOwnsWaffle(address account, uint waffleId) internal returns(bool) {\r\n        for (uint i = 0; i < profiles[account].ownedWafflesCount; i++) {\r\n            if (profiles[account].ownedWaffles[i] == waffleId) {\r\n                return true;\r\n            }\r\n        }\r\n        return false;\r\n    }\r\n\r\n    function accountHasVotedOnWaffle(address account, uint waffleId) internal returns(bool) {\r\n        for (uint i = 0; i < profiles[account].votedWafflesCount; i++) {\r\n            if (profiles[account].votedWaffles[i] == waffleId) {\r\n                return true;\r\n            }\r\n        }\r\n        return false;\r\n    }\r\n}\r\n",
  "sourcePath": "C:/Users/ypelletier/Desktop/Projects/WaffleHouse/contracts/WaffleMaker.sol",
  "compiler": {
    "name": "solc",
    "version": "0.6.12+commit.27d51765.Emscripten.clang"
  },
  "schemaVersion": "3.3.2",
  "updatedAt": "2020-11-18T15:00:06.158Z",
  "networkType": "ethereum",
  "devdoc": {
    "kind": "dev",
    "methods": {},
    "version": 1
  },
  "userdoc": {
    "kind": "user",
    "methods": {
      "bakeWaffleLayer(uint256)": {
        "notice": "Add a new layer to the waffleId provided if the waffle is owned by the sender and if last   layer has been customized*"
      },
      "concludeCompetition()": {
        "notice": "Concludes the competition and distributes the rewards to the owner   of the waffle with the most votes   Can be called by anyone past the competition end timestamp*"
      },
      "getCompetitionEndTimestamp()": {
        "notice": "Returns the timestamp at which the competition will end and concludeCompetition()   can be called by anyone to distribute the reward*"
      },
      "getProfileInfo(address)": {
        "notice": "Returns the profile data associated to an address*"
      },
      "getWaffleInfo(uint256)": {
        "notice": "Returns the data of the waffle associated to a waffle id*"
      },
      "voteWaffle(uint256)": {
        "notice": "Cast a vote for the waffleId provided from the sender account.   No more than MAX_VOTES_PER_ACCOUNT votes can be cast per account.*"
      }
    },
    "version": 1
  }
}