{
  "contractName": "WaffleMaker",
  "abi": [
    {
      "inputs": [],
      "stateMutability": "nonpayable",
      "type": "constructor"
    },
    {
      "inputs": [],
      "name": "admin",
      "outputs": [
        {
          "internalType": "address",
          "name": "",
          "type": "address"
        }
      ],
      "stateMutability": "view",
      "type": "function",
      "constant": true
    },
    {
      "inputs": [
        {
          "internalType": "uint256",
          "name": "",
          "type": "uint256"
        }
      ],
      "name": "bases",
      "outputs": [
        {
          "internalType": "string",
          "name": "name",
          "type": "string"
        },
        {
          "internalType": "uint256",
          "name": "price",
          "type": "uint256"
        }
      ],
      "stateMutability": "view",
      "type": "function",
      "constant": true
    },
    {
      "inputs": [
        {
          "internalType": "uint256",
          "name": "",
          "type": "uint256"
        }
      ],
      "name": "extras",
      "outputs": [
        {
          "internalType": "string",
          "name": "name",
          "type": "string"
        },
        {
          "internalType": "uint256",
          "name": "price",
          "type": "uint256"
        }
      ],
      "stateMutability": "view",
      "type": "function",
      "constant": true
    },
    {
      "inputs": [
        {
          "internalType": "uint256",
          "name": "",
          "type": "uint256"
        }
      ],
      "name": "plates",
      "outputs": [
        {
          "internalType": "string",
          "name": "name",
          "type": "string"
        },
        {
          "internalType": "uint256",
          "name": "price",
          "type": "uint256"
        }
      ],
      "stateMutability": "view",
      "type": "function",
      "constant": true
    },
    {
      "inputs": [
        {
          "internalType": "uint256",
          "name": "",
          "type": "uint256"
        }
      ],
      "name": "toppings",
      "outputs": [
        {
          "internalType": "string",
          "name": "name",
          "type": "string"
        },
        {
          "internalType": "uint256",
          "name": "price",
          "type": "uint256"
        }
      ],
      "stateMutability": "view",
      "type": "function",
      "constant": true
    },
    {
      "inputs": [],
      "name": "createWaffle",
      "outputs": [],
      "stateMutability": "nonpayable",
      "type": "function"
    },
    {
      "inputs": [
        {
          "internalType": "uint256",
          "name": "waffleId",
          "type": "uint256"
        }
      ],
      "name": "bakeWaffleLayer",
      "outputs": [],
      "stateMutability": "nonpayable",
      "type": "function"
    },
    {
      "inputs": [
        {
          "internalType": "uint256",
          "name": "waffleId",
          "type": "uint256"
        },
        {
          "internalType": "uint256",
          "name": "baseId",
          "type": "uint256"
        },
        {
          "internalType": "uint256",
          "name": "toppingId",
          "type": "uint256"
        },
        {
          "internalType": "uint256",
          "name": "plateId",
          "type": "uint256"
        },
        {
          "internalType": "uint256",
          "name": "extraId",
          "type": "uint256"
        }
      ],
      "name": "customizeWaffleLayer",
      "outputs": [],
      "stateMutability": "nonpayable",
      "type": "function"
    },
    {
      "inputs": [
        {
          "internalType": "uint256",
          "name": "waffleId",
          "type": "uint256"
        }
      ],
      "name": "addWaffleIngredient",
      "outputs": [],
      "stateMutability": "nonpayable",
      "type": "function"
    },
    {
      "inputs": [
        {
          "internalType": "uint256",
          "name": "waffleId",
          "type": "uint256"
        }
      ],
      "name": "voteWaffle",
      "outputs": [],
      "stateMutability": "nonpayable",
      "type": "function"
    },
    {
      "inputs": [],
      "name": "concludeCompetition",
      "outputs": [],
      "stateMutability": "nonpayable",
      "type": "function"
    },
    {
      "inputs": [
        {
          "internalType": "uint256",
          "name": "waffleId",
          "type": "uint256"
        }
      ],
      "name": "getWaffleInfo",
      "outputs": [
        {
          "internalType": "address",
          "name": "owner",
          "type": "address"
        },
        {
          "internalType": "string",
          "name": "name",
          "type": "string"
        },
        {
          "internalType": "string",
          "name": "description",
          "type": "string"
        },
        {
          "internalType": "uint256",
          "name": "votes",
          "type": "uint256"
        },
        {
          "internalType": "uint256",
          "name": "plateId",
          "type": "uint256"
        },
        {
          "internalType": "uint256",
          "name": "extraId",
          "type": "uint256"
        },
        {
          "components": [
            {
              "internalType": "uint256",
              "name": "baseId",
              "type": "uint256"
            },
            {
              "internalType": "uint256",
              "name": "toppingId",
              "type": "uint256"
            },
            {
              "internalType": "bool",
              "name": "customized",
              "type": "bool"
            }
          ],
          "internalType": "struct WaffleMaker.WaffleLayer[]",
          "name": "layers",
          "type": "tuple[]"
        }
      ],
      "stateMutability": "view",
      "type": "function",
      "constant": true
    },
    {
      "inputs": [
        {
          "internalType": "address",
          "name": "addr",
          "type": "address"
        }
      ],
      "name": "getProfileInfo",
      "outputs": [
        {
          "internalType": "uint256[]",
          "name": "ownedWaffleIds",
          "type": "uint256[]"
        },
        {
          "internalType": "uint256[]",
          "name": "votedWaffleIds",
          "type": "uint256[]"
        }
      ],
      "stateMutability": "view",
      "type": "function",
      "constant": true
    },
    {
      "inputs": [],
      "name": "getCompetitionEndTimestamp",
      "outputs": [
        {
          "internalType": "uint256",
          "name": "",
          "type": "uint256"
        }
      ],
      "stateMutability": "view",
      "type": "function",
      "constant": true
    }
  ],
  "bytecode": "0x60806040523480156200001157600080fd5b50336000806101000a81548173ffffffffffffffffffffffffffffffffffffffff021916908373ffffffffffffffffffffffffffffffffffffffff16021790555042600181905550600260405180604001604052806040518060400160405280600581526020017f456d7074790000000000000000000000000000000000000000000000000000008152508152602001600081525090806001815401808255809150506001900390600052602060002090600202016000909190919091506000820151816000019080519060200190620000ed929190620002e3565b50602082015181600101555050600360405180604001604052806040518060400160405280600581526020017f456d70747900000000000000000000000000000000000000000000000000000081525081526020016000815250908060018154018082558091505060019003906000526020600020906002020160009091909190915060008201518160000190805190602001906200018e929190620002e3565b50602082015181600101555050600460405180604001604052806040518060400160405280600581526020017f456d70747900000000000000000000000000000000000000000000000000000081525081526020016000815250908060018154018082558091505060019003906000526020600020906002020160009091909190915060008201518160000190805190602001906200022f929190620002e3565b50602082015181600101555050600560405180604001604052806040518060400160405280600581526020017f456d7074790000000000000000000000000000000000000000000000000000008152508152602001600081525090806001815401808255809150506001900390600052602060002090600202016000909190919091506000820151816000019080519060200190620002d0929190620002e3565b5060208201518160010155505062000389565b828054600181600116156101000203166002900490600052602060002090601f016020900481019282601f106200032657805160ff191683800117855562000357565b8280016001018555821562000357579182015b828111156200035657825182559160200191906001019062000339565b5b5090506200036691906200036a565b5090565b5b80821115620003855760008160009055506001016200036b565b5090565b6125fc80620003996000396000f3fe608060405234801561001057600080fd5b50600436106100ea5760003560e01c8063971c7f5a1161008c578063d01fa60c11610066578063d01fa60c14610265578063d03a322c14610296578063e62f9eb9146102b2578063f851a440146102bc576100ea565b8063971c7f5a146101fc5780639dae4cf114610218578063aa0282ec14610249576100ea565b80635468bc2f116100c85780635468bc2f14610146578063664666731461017757806372041848146101955780639531c82f146101c6576100ea565b80630cacbec8146100ef5780630f3b22c0146100f9578063155caa321461012a575b600080fd5b6100f76102da565b005b610113600480360381019061010e9190611ba4565b61053e565b6040516101219291906122d3565b60405180910390f35b610144600480360381019061013f9190611ba4565b610607565b005b610160600480360381019061015b9190611ba4565b61060a565b60405161016e9291906122d3565b60405180910390f35b61017f6106d3565b60405161018c9190612463565b60405180910390f35b6101af60048036038101906101aa9190611ba4565b6106e2565b6040516101bd9291906122d3565b60405180910390f35b6101e060048036038101906101db9190611ba4565b6107ab565b6040516101f39796959493929190612218565b60405180910390f35b61021660048036038101906102119190611ba4565b610b75565b005b610232600480360381019061022d9190611b7b565b610e84565b60405161024092919061229c565b60405180910390f35b610263600480360381019061025e9190611ba4565b61113c565b005b61027f600480360381019061027a9190611ba4565b611271565b60405161028d9291906122d3565b60405180910390f35b6102b060048036038101906102ab9190611bcd565b61133a565b005b6102ba611635565b005b6102c46116f2565b6040516102d191906121fd565b60405180910390f35b600062278d00600154019050804210610328576040517f08c379a000000000000000000000000000000000000000000000000000000000815260040161031f90612303565b60405180910390fd5b60066040518061010001604052803373ffffffffffffffffffffffffffffffffffffffff1681526020016000815260200142815260200160405180602001604052806000815250815260200160405180602001604052806000815250815260200160008152602001600081526020016000815250908060018154018082558091505060019003906000526020600020906009020160009091909190915060008201518160000160006101000a81548173ffffffffffffffffffffffffffffffffffffffff021916908373ffffffffffffffffffffffffffffffffffffffff1602179055506020820151816001015560408201518160020155606082015181600301908051906020019061043c929190611a36565b506080820151816004019080519060200190610459929190611a36565b5060a0820151816005015560c0820151816006015560e08201518160080155505061048b600160068054905003611716565b600160068054905003600a60003373ffffffffffffffffffffffffffffffffffffffff1673ffffffffffffffffffffffffffffffffffffffff1681526020019081526020016000206000016000600a60003373ffffffffffffffffffffffffffffffffffffffff1673ffffffffffffffffffffffffffffffffffffffff16815260200190815260200160002060010160008154809291906001019190505581526020019081526020016000208190555050565b6002818154811061054b57fe5b9060005260206000209060020201600091509050806000018054600181600116156101000203166002900480601f0160208091040260200160405190810160405280929190818152602001828054600181600116156101000203166002900480156105f75780601f106105cc576101008083540402835291602001916105f7565b820191906000526020600020905b8154815290600101906020018083116105da57829003601f168201915b5050505050908060010154905082565b50565b6005818154811061061757fe5b9060005260206000209060020201600091509050806000018054600181600116156101000203166002900480601f0160208091040260200160405190810160405280929190818152602001828054600181600116156101000203166002900480156106c35780601f10610698576101008083540402835291602001916106c3565b820191906000526020600020905b8154815290600101906020018083116106a657829003601f168201915b5050505050908060010154905082565b600062278d0060015401905090565b600381815481106106ef57fe5b9060005260206000209060020201600091509050806000018054600181600116156101000203166002900480601f01602080910402602001604051908101604052809291908181526020018280546001816001161561010002031660029004801561079b5780601f106107705761010080835404028352916020019161079b565b820191906000526020600020905b81548152906001019060200180831161077e57829003601f168201915b5050505050908060010154905082565b6000606080600080600060608760068054905081106107ff576040517f08c379a00000000000000000000000000000000000000000000000000000000081526004016107f690612363565b60405180910390fd5b6006805490508910610846576040517f08c379a000000000000000000000000000000000000000000000000000000000815260040161083d90612363565b60405180910390fd5b61084e611ab6565b60068a8154811061085b57fe5b9060005260206000209060090201604051806101000160405290816000820160009054906101000a900473ffffffffffffffffffffffffffffffffffffffff1673ffffffffffffffffffffffffffffffffffffffff1673ffffffffffffffffffffffffffffffffffffffff1681526020016001820154815260200160028201548152602001600382018054600181600116156101000203166002900480601f0160208091040260200160405190810160405280929190818152602001828054600181600116156101000203166002900480156109785780601f1061094d57610100808354040283529160200191610978565b820191906000526020600020905b81548152906001019060200180831161095b57829003601f168201915b50505050508152602001600482018054600181600116156101000203166002900480601f016020809104026020016040519081016040528092919081815260200182805460018160011615610100020316600290048015610a1a5780601f106109ef57610100808354040283529160200191610a1a565b820191906000526020600020905b8154815290600101906020018083116109fd57829003601f168201915b505050505081526020016005820154815260200160068201548152602001600882015481525050905060608160e0015167ffffffffffffffff81118015610a6057600080fd5b50604051908082528060200260200182016040528015610a9a57816020015b610a87611b11565b815260200190600190039081610a7f5790505b50905060005b8260e00151811015610b395760068c81548110610ab957fe5b9060005260206000209060090201600701600082815260200190815260200160002060405180606001604052908160008201548152602001600182015481526020016002820160009054906101000a900460ff161515151581525050828281518110610b2157fe5b60200260200101819052508080600101915050610aa0565b5081600001518260600151836080015184602001518560a001518660c00151869950995099509950995099509950505050919395979092949650565b600062278d00600154019050804210610bc3576040517f08c379a0000000000000000000000000000000000000000000000000000000008152600401610bba90612303565b60405180910390fd5b816006805490508110610c0b576040517f08c379a0000000000000000000000000000000000000000000000000000000008152600401610c0290612363565b60405180910390fd5b6000600a60003373ffffffffffffffffffffffffffffffffffffffff1673ffffffffffffffffffffffffffffffffffffffff1681526020019081526020016000206001015411610c90576040517f08c379a0000000000000000000000000000000000000000000000000000000008152600401610c87906123e3565b60405180910390fd5b6003600a60003373ffffffffffffffffffffffffffffffffffffffff1673ffffffffffffffffffffffffffffffffffffffff1681526020019081526020016000206003015410610d15576040517f08c379a0000000000000000000000000000000000000000000000000000000008152600401610d0c90612403565b60405180910390fd5b610d1f338461182c565b15610d5f576040517f08c379a0000000000000000000000000000000000000000000000000000000008152600401610d5690612323565b60405180910390fd5b610d6933846118fc565b15610da9576040517f08c379a0000000000000000000000000000000000000000000000000000000008152600401610da0906123a3565b60405180910390fd5b60068381548110610db657fe5b90600052602060002090600902016001016000815480929190600101919050555082600a60003373ffffffffffffffffffffffffffffffffffffffff1673ffffffffffffffffffffffffffffffffffffffff1681526020019081526020016000206002016000600a60003373ffffffffffffffffffffffffffffffffffffffff1673ffffffffffffffffffffffffffffffffffffffff168152602001908152602001600020600301600081548092919060010191905055815260200190815260200160002081905550505050565b6060806060600a60008573ffffffffffffffffffffffffffffffffffffffff1673ffffffffffffffffffffffffffffffffffffffff1681526020019081526020016000206001015467ffffffffffffffff81118015610ee257600080fd5b50604051908082528060200260200182016040528015610f115781602001602082028036833780820191505090505b50905060005b600a60008673ffffffffffffffffffffffffffffffffffffffff1673ffffffffffffffffffffffffffffffffffffffff16815260200190815260200160002060010154811015610fda57600a60008673ffffffffffffffffffffffffffffffffffffffff1673ffffffffffffffffffffffffffffffffffffffff168152602001908152602001600020600001600082815260200190815260200160002054828281518110610fc157fe5b6020026020010181815250508080600101915050610f17565b506060600a60008673ffffffffffffffffffffffffffffffffffffffff1673ffffffffffffffffffffffffffffffffffffffff1681526020019081526020016000206003015467ffffffffffffffff8111801561103657600080fd5b506040519080825280602002602001820160405280156110655781602001602082028036833780820191505090505b50905060005b600a60008773ffffffffffffffffffffffffffffffffffffffff1673ffffffffffffffffffffffffffffffffffffffff1681526020019081526020016000206003015481101561112e57600a60008773ffffffffffffffffffffffffffffffffffffffff1673ffffffffffffffffffffffffffffffffffffffff16815260200190815260200160002060020160008281526020019081526020016000205482828151811061111557fe5b602002602001018181525050808060010191505061106b565b508181935093505050915091565b600062278d0060015401905080421061118a576040517f08c379a000000000000000000000000000000000000000000000000000000000815260040161118190612303565b60405180910390fd5b8160068054905081106111d2576040517f08c379a00000000000000000000000000000000000000000000000000000000081526004016111c990612363565b60405180910390fd5b6111dc338461182c565b61121b576040517f08c379a000000000000000000000000000000000000000000000000000000000815260040161121290612423565b60405180910390fd5b611224836119cc565b611263576040517f08c379a000000000000000000000000000000000000000000000000000000000815260040161125a906123c3565b60405180910390fd5b61126c83611716565b505050565b6004818154811061127e57fe5b9060005260206000209060020201600091509050806000018054600181600116156101000203166002900480601f01602080910402602001604051908101604052809291908181526020018280546001816001161561010002031660029004801561132a5780601f106112ff5761010080835404028352916020019161132a565b820191906000526020600020905b81548152906001019060200180831161130d57829003601f168201915b5050505050908060010154905082565b600062278d00600154019050804210611388576040517f08c379a000000000000000000000000000000000000000000000000000000000815260040161137f90612303565b60405180910390fd5b8560068054905081106113d0576040517f08c379a00000000000000000000000000000000000000000000000000000000081526004016113c790612363565b60405180910390fd5b6113da338861182c565b611419576040517f08c379a000000000000000000000000000000000000000000000000000000000815260040161141090612423565b60405180910390fd5b611422876119cc565b15611462576040517f08c379a0000000000000000000000000000000000000000000000000000000008152600401611459906123c3565b60405180910390fd5b60016006888154811061147157fe5b906000526020600020906009020160080154116114cf57836006888154811061149657fe5b90600052602060002090600902016005018190555082600688815481106114b957fe5b9060005260206000209060090201600601819055505b60006001600689815481106114e057fe5b906000526020600020906009020160080154039050866006898154811061150357fe5b9060005260206000209060090201600701600083815260200190815260200160002060000181905550856006898154811061153a57fe5b906000526020600020906009020160070160008381526020019081526020016000206001018190555060016006898154811061157257fe5b9060005260206000209060090201600701600083815260200190815260200160002060020160006101000a81548160ff02191690831515021790555042600689815481106115bc57fe5b90600052602060002090600902016002018190555060076001600381106115df57fe5b015460076000600381106115ef57fe5b0181905550600760026003811061160257fe5b0154600760016003811061161257fe5b018190555087600760026003811061162657fe5b01819055505050505050505050565b600062278d0060015401905080421015611684576040517f08c379a000000000000000000000000000000000000000000000000000000000815260040161167b90612443565b60405180910390fd5b600b60009054906101000a900460ff16156116d4576040517f08c379a00000000000000000000000000000000000000000000000000000000081526004016116cb90612343565b60405180910390fd5b6001600b60006101000a81548160ff02191690831515021790555050565b60008054906101000a900473ffffffffffffffffffffffffffffffffffffffff1681565b60056006828154811061172557fe5b90600052602060002090600902016008015410611777576040517f08c379a000000000000000000000000000000000000000000000000000000000815260040161176e90612383565b60405180910390fd5b6040518060600160405280600081526020016000815260200160001515815250600682815481106117a457fe5b90600052602060002090600902016007016000600684815481106117c457fe5b90600052602060002090600902016008016000815480929190600101919050558152602001908152602001600020600082015181600001556020820151816001015560408201518160020160006101000a81548160ff02191690831515021790555090505050565b600080600090505b600a60008573ffffffffffffffffffffffffffffffffffffffff1673ffffffffffffffffffffffffffffffffffffffff168152602001908152602001600020600101548110156118f05782600a60008673ffffffffffffffffffffffffffffffffffffffff1673ffffffffffffffffffffffffffffffffffffffff16815260200190815260200160002060000160008381526020019081526020016000205414156118e35760019150506118f6565b8080600101915050611834565b50600090505b92915050565b600080600090505b600a60008573ffffffffffffffffffffffffffffffffffffffff1673ffffffffffffffffffffffffffffffffffffffff168152602001908152602001600020600301548110156119c05782600a60008673ffffffffffffffffffffffffffffffffffffffff1673ffffffffffffffffffffffffffffffffffffffff16815260200190815260200160002060020160008381526020019081526020016000205414156119b35760019150506119c6565b8080600101915050611904565b50600090505b92915050565b6000600682815481106119db57fe5b906000526020600020906009020160070160006001600685815481106119fd57fe5b90600052602060002090600902016008015403815260200190815260200160002060020160009054906101000a900460ff169050919050565b828054600181600116156101000203166002900490600052602060002090601f016020900481019282601f10611a7757805160ff1916838001178555611aa5565b82800160010185558215611aa5579182015b82811115611aa4578251825591602001919060010190611a89565b5b509050611ab29190611b34565b5090565b604051806101000160405280600073ffffffffffffffffffffffffffffffffffffffff168152602001600081526020016000815260200160608152602001606081526020016000815260200160008152602001600081525090565b604051806060016040528060008152602001600081526020016000151581525090565b5b80821115611b4d576000816000905550600101611b35565b5090565b600081359050611b6081612598565b92915050565b600081359050611b75816125af565b92915050565b600060208284031215611b8d57600080fd5b6000611b9b84828501611b51565b91505092915050565b600060208284031215611bb657600080fd5b6000611bc484828501611b66565b91505092915050565b600080600080600060a08688031215611be557600080fd5b6000611bf388828901611b66565b9550506020611c0488828901611b66565b9450506040611c1588828901611b66565b9350506060611c2688828901611b66565b9250506080611c3788828901611b66565b9150509295509295909350565b6000611c50838361219d565b60608301905092915050565b6000611c6883836121df565b60208301905092915050565b611c7d8161250c565b82525050565b6000611c8e8261249e565b611c9881856124d9565b9350611ca38361247e565b8060005b83811015611cd4578151611cbb8882611c44565b9750611cc6836124bf565b925050600181019050611ca7565b5085935050505092915050565b6000611cec826124a9565b611cf681856124ea565b9350611d018361248e565b8060005b83811015611d32578151611d198882611c5c565b9750611d24836124cc565b925050600181019050611d05565b5085935050505092915050565b611d488161251e565b82525050565b6000611d59826124b4565b611d6381856124fb565b9350611d73818560208601612554565b611d7c81612587565b840191505092915050565b6000611d94601b836124fb565b91507f436f6d7065746974696f6e206d757374206265206f6e676f696e6700000000006000830152602082019050919050565b6000611dd46022836124fb565b91507f596f752063616e277420766f746520666f7220796f7572206f776e207761666660008301527f6c650000000000000000000000000000000000000000000000000000000000006020830152604082019050919050565b6000611e3a6026836124fb565b91507f436f6d7065746974696f6e2068617320616c7265616479206265656e20636f6e60008301527f636c7564656400000000000000000000000000000000000000000000000000006020830152604082019050919050565b6000611ea06019836124fb565b91507f5468697320776166666c6520646f65736e2774206578697374000000000000006000830152602082019050919050565b6000611ee06029836124fb565b91507f596f752063616e6e6f7420616464206d6f7265206c617965727320746f20746860008301527f697320776166666c6500000000000000000000000000000000000000000000006020830152604082019050919050565b6000611f466028836124fb565b91507f596f752063616e277420766f746520666f72207468652073616d65207761666660008301527f6c652074776963650000000000000000000000000000000000000000000000006020830152604082019050919050565b6000611fac6049836124fb565b91507f596f752063616e2774206164642061206e6577206c617965722069662074686560008301527f206c61737420776166666c65206c61796572206861736e2774206265656e206360208301527f7573746f6d697a656400000000000000000000000000000000000000000000006040830152606082019050919050565b6000612038602b836124fb565b91507f596f75206d75737420637265617465206174206c65617374206f6e652077616660008301527f666c6520746f20766f74650000000000000000000000000000000000000000006020830152604082019050919050565b600061209e6022836124fb565b91507f4d617820766f746573206f6e2074686973206163636f756e742065786365656460008301527f65640000000000000000000000000000000000000000000000000000000000006020830152604082019050919050565b60006121046032836124fb565b91507f596f752063616e27742062616b652061206c6179657220666f7220612077616660008301527f666c6520796f7520646f206e6f74206f776e00000000000000000000000000006020830152604082019050919050565b600061216a601b836124fb565b91507f436f6d7065746974696f6e206d757374206861766520656e64656400000000006000830152602082019050919050565b6060820160008201516121b360008501826121df565b5060208201516121c660208501826121df565b5060408201516121d96040850182611d3f565b50505050565b6121e88161254a565b82525050565b6121f78161254a565b82525050565b60006020820190506122126000830184611c74565b92915050565b600060e08201905061222d600083018a611c74565b818103602083015261223f8189611d4e565b905081810360408301526122538188611d4e565b905061226260608301876121ee565b61226f60808301866121ee565b61227c60a08301856121ee565b81810360c083015261228e8184611c83565b905098975050505050505050565b600060408201905081810360008301526122b68185611ce1565b905081810360208301526122ca8184611ce1565b90509392505050565b600060408201905081810360008301526122ed8185611d4e565b90506122fc60208301846121ee565b9392505050565b6000602082019050818103600083015261231c81611d87565b9050919050565b6000602082019050818103600083015261233c81611dc7565b9050919050565b6000602082019050818103600083015261235c81611e2d565b9050919050565b6000602082019050818103600083015261237c81611e93565b9050919050565b6000602082019050818103600083015261239c81611ed3565b9050919050565b600060208201905081810360008301526123bc81611f39565b9050919050565b600060208201905081810360008301526123dc81611f9f565b9050919050565b600060208201905081810360008301526123fc8161202b565b9050919050565b6000602082019050818103600083015261241c81612091565b9050919050565b6000602082019050818103600083015261243c816120f7565b9050919050565b6000602082019050818103600083015261245c8161215d565b9050919050565b600060208201905061247860008301846121ee565b92915050565b6000819050602082019050919050565b6000819050602082019050919050565b600081519050919050565b600081519050919050565b600081519050919050565b6000602082019050919050565b6000602082019050919050565b600082825260208201905092915050565b600082825260208201905092915050565b600082825260208201905092915050565b60006125178261252a565b9050919050565b60008115159050919050565b600073ffffffffffffffffffffffffffffffffffffffff82169050919050565b6000819050919050565b60005b83811015612572578082015181840152602081019050612557565b83811115612581576000848401525b50505050565b6000601f19601f8301169050919050565b6125a18161250c565b81146125ac57600080fd5b50565b6125b88161254a565b81146125c357600080fd5b5056fea2646970667358221220fa4961d08e2f14b2a586a5feec5f51b4ff8d0da3c37ee098a4facd5d92195f7b64736f6c634300060c0033",
  "immutableReferences": {},
  "source": "pragma solidity ^0.6.0;\r\npragma experimental ABIEncoderV2;\r\n\r\ncontract WaffleMaker {\r\n    // ******************** CONSTANTS ***********************\r\n    uint constant MAX_WAFFLE_LAYERS = 5;\r\n    uint constant MAX_VOTES_PER_ACCOUNT = 3;\r\n    uint constant COMPETITION_DURATION = 2592000; // 1 month duration\r\n\r\n    // ******************** DATA ***********************\r\n    // Static data\r\n    address public admin; // Also the address to which the 10% dev fund is sent to\r\n    uint competitionStart;\r\n\r\n    // Semi static data\r\n    WaffleItem[] public toppings;\r\n    WaffleItem[] public bases;\r\n    WaffleItem[] public plates;\r\n    WaffleItem[] public extras;\r\n\r\n    // Variable data\r\n    Waffle[] waffles;\r\n    uint[3] recentWaffles;\r\n    mapping(address => AccountProfile) profiles;\r\n    bool competitionConcluded;\r\n\r\n    // ******************** STRUCTS ***********************\r\n    struct WaffleItem {\r\n        string name;\r\n        uint price;\r\n    }\r\n\r\n    struct WaffleLayer {\r\n        uint baseId;\r\n        uint toppingId;\r\n        bool customized;\r\n    }\r\n\r\n    struct Waffle {\r\n        address owner;\r\n        uint votes;\r\n        uint actionStart; // Saves the Unix timestamp at which the either bake or customization worked\r\n        string name;\r\n        string description;\r\n        uint plateId;\r\n        uint extraId;\r\n        mapping(uint => WaffleLayer) layers;\r\n        uint layersCount;\r\n    }\r\n\r\n    struct AccountProfile {\r\n        mapping(uint => uint) ownedWaffles;\r\n        uint ownedWafflesCount;\r\n        mapping(uint => uint) votedWaffles;\r\n        uint votedWafflesCount;\r\n    }\r\n\r\n    // ******************** MODIFIERS ***********************\r\n    modifier competitionIsOngoing {\r\n        uint endTimestamp = competitionStart + COMPETITION_DURATION;\r\n        require(block.timestamp < endTimestamp, \"Competition must be ongoing\");\r\n        _;\r\n    }\r\n\r\n    modifier competitionHasEnded {\r\n        uint endTimestamp = competitionStart + COMPETITION_DURATION;\r\n        require(block.timestamp >= endTimestamp, \"Competition must have ended\");\r\n        _;\r\n    }\r\n\r\n    modifier waffleExists(uint waffleId) {\r\n        require(waffleId < waffles.length, \"This waffle doesn't exist\");\r\n        _;\r\n    }\r\n\r\n    // ******************** CONSTRUCTOR ***********************\r\n    constructor() public {\r\n        admin = msg.sender;\r\n        competitionStart = block.timestamp;\r\n\r\n        toppings.push(WaffleItem('Empty', 0));\r\n        bases.push(WaffleItem('Empty', 0));\r\n        plates.push(WaffleItem('Empty', 0));\r\n        extras.push(WaffleItem('Empty', 0));\r\n    }\r\n\r\n    // ******************** SEND FUNCTIONS ***********************\r\n    function createWaffle() external competitionIsOngoing {\r\n        waffles.push(Waffle({\r\n            owner: msg.sender,\r\n            votes: 0,\r\n            actionStart: block.timestamp,\r\n            name: \"\",\r\n            description: \"\",\r\n            plateId: 0,\r\n            extraId: 0,\r\n            layersCount: 0\r\n        }));\r\n        addWaffleLayer(waffles.length - 1);\r\n\r\n        profiles[msg.sender].ownedWaffles[profiles[msg.sender].ownedWafflesCount++] = waffles.length - 1;\r\n    }\r\n\r\n    /**\r\n    *   Add a new layer to the waffleId provided if the waffle is owned by the sender and if last\r\n    *   layer has been customized\r\n    **/\r\n    function bakeWaffleLayer(uint waffleId) external competitionIsOngoing waffleExists(waffleId) {\r\n        require(accountOwnsWaffle(msg.sender, waffleId), \"You can't bake a layer for a waffle you do not own\");\r\n        require(lastWaffleLayerIsCustomized(waffleId), \"You can't add a new layer if the last waffle layer hasn't been customized\");\r\n\r\n        addWaffleLayer(waffleId);\r\n    }\r\n\r\n    function customizeWaffleLayer(uint waffleId, uint baseId, uint toppingId, uint plateId, uint extraId) external competitionIsOngoing waffleExists(waffleId) {\r\n        require(accountOwnsWaffle(msg.sender, waffleId), \"You can't bake a layer for a waffle you do not own\");\r\n        require(!lastWaffleLayerIsCustomized(waffleId), \"You can't add a new layer if the last waffle layer hasn't been customized\");\r\n\r\n        if(waffles[waffleId].layersCount <= 1) {\r\n            waffles[waffleId].plateId = plateId;\r\n            waffles[waffleId].extraId = extraId;\r\n        }\r\n        uint lastLayerIndex = waffles[waffleId].layersCount - 1;\r\n        waffles[waffleId].layers[lastLayerIndex].baseId = baseId;\r\n        waffles[waffleId].layers[lastLayerIndex].toppingId = toppingId;\r\n        waffles[waffleId].layers[lastLayerIndex].customized = true;\r\n        waffles[waffleId].actionStart = block.timestamp;\r\n\r\n        recentWaffles[0] = recentWaffles[1];\r\n        recentWaffles[1] = recentWaffles[2];\r\n        recentWaffles[2] = waffleId;\r\n    }\r\n\r\n    function addWaffleIngredient(uint waffleId) external {\r\n\r\n    }\r\n\r\n    /**\r\n    *   Cast a vote for the waffleId provided from the sender account.\r\n    *\r\n    *   No more than MAX_VOTES_PER_ACCOUNT votes can be cast per account.\r\n    **/\r\n    function voteWaffle(uint waffleId) external competitionIsOngoing waffleExists(waffleId) {\r\n        require(profiles[msg.sender].ownedWafflesCount > 0, \"You must create at least one waffle to vote\");\r\n        require(profiles[msg.sender].votedWafflesCount < MAX_VOTES_PER_ACCOUNT, \"Max votes on this account exceeded\");\r\n        require(!accountOwnsWaffle(msg.sender, waffleId), \"You can't vote for your own waffle\");\r\n        require(!accountHasVotedOnWaffle(msg.sender, waffleId), \"You can't vote for the same waffle twice\");\r\n\r\n        waffles[waffleId].votes++;\r\n        profiles[msg.sender].votedWaffles[profiles[msg.sender].votedWafflesCount++] = waffleId;\r\n    }\r\n\r\n    /**\r\n    *   Concludes the competition and distributes the rewards to the owner\r\n    *   of the waffle with the most votes\r\n    *\r\n    *   Can be called by anyone past the competition end timestamp\r\n    **/\r\n    function concludeCompetition() external competitionHasEnded {\r\n        require(!competitionConcluded, \"Competition has already been concluded\");\r\n\r\n        competitionConcluded = true;\r\n    }\r\n\r\n    // ******************** VIEW FUNCTIONS ***********************\r\n    /**\r\n    *   Returns the data of the waffle associated to a waffle id\r\n    **/\r\n    function getWaffleInfo(uint waffleId) external view waffleExists(waffleId) returns (address owner, string memory name, string memory description, uint votes, uint plateId, uint extraId, WaffleLayer[] memory layers)  {\r\n        require(waffleId < waffles.length, \"This waffle doesn't exist\");\r\n\r\n        Waffle memory waffle = waffles[waffleId];\r\n        WaffleLayer[] memory waffleLayers = new WaffleLayer[](waffle.layersCount);\r\n        for (uint i = 0; i < waffle.layersCount; i++) {\r\n            waffleLayers[i] = waffles[waffleId].layers[i];\r\n        }\r\n        return (waffle.owner, waffle.name, waffle.description, waffle.votes, waffle.plateId, waffle.extraId, waffleLayers);\r\n    }\r\n\r\n    /**\r\n    *   Returns the profile data associated to an address\r\n    **/\r\n    function getProfileInfo(address addr) external view returns (uint[] memory ownedWaffleIds, uint[] memory votedWaffleIds) {\r\n        uint[] memory profileOwnedWaffles = new uint[](profiles[addr].ownedWafflesCount);\r\n        for (uint i = 0; i < profiles[addr].ownedWafflesCount; i++) {\r\n            profileOwnedWaffles[i] = profiles[addr].ownedWaffles[i];\r\n        }\r\n\r\n        uint[] memory profileVotedWaffles = new uint[](profiles[addr].votedWafflesCount);\r\n        for (uint i = 0; i < profiles[addr].votedWafflesCount; i++) {\r\n            profileVotedWaffles[i] = profiles[addr].votedWaffles[i];\r\n        }\r\n        return (profileOwnedWaffles, profileVotedWaffles);\r\n    }\r\n\r\n    /**\r\n    *   Returns the timestamp at which the competition will end and concludeCompetition()\r\n    *   can be called by anyone to distribute the reward\r\n    **/\r\n    function getCompetitionEndTimestamp() external view returns (uint) {\r\n        return competitionStart + COMPETITION_DURATION;\r\n    }\r\n\r\n    // ******************** INTERNAL FUNCTIONS ***********************\r\n    function addWaffleLayer(uint waffleId) internal {\r\n        require(waffles[waffleId].layersCount < MAX_WAFFLE_LAYERS, \"You cannot add more layers to this waffle\");\r\n        waffles[waffleId].layers[waffles[waffleId].layersCount++] = WaffleLayer(0,0,false);\r\n    }\r\n\r\n    function lastWaffleLayerIsCustomized(uint waffleId) internal returns(bool) {\r\n        return waffles[waffleId].layers[waffles[waffleId].layersCount - 1].customized;\r\n    }\r\n\r\n    function accountOwnsWaffle(address account, uint waffleId) internal returns(bool) {\r\n        for (uint i = 0; i < profiles[account].ownedWafflesCount; i++) {\r\n            if (profiles[account].ownedWaffles[i] == waffleId) {\r\n                return true;\r\n            }\r\n        }\r\n        return false;\r\n    }\r\n\r\n    function accountHasVotedOnWaffle(address account, uint waffleId) internal returns(bool) {\r\n        for (uint i = 0; i < profiles[account].votedWafflesCount; i++) {\r\n            if (profiles[account].votedWaffles[i] == waffleId) {\r\n                return true;\r\n            }\r\n        }\r\n        return false;\r\n    }\r\n}\r\n",
  "sourcePath": "C:/Users/ypelletier/Desktop/Projects/WaffleHouse/contracts/WaffleMaker.sol",
  "compiler": {
    "name": "solc",
    "version": "0.6.12+commit.27d51765.Emscripten.clang"
  },
  "schemaVersion": "3.3.2",
  "updatedAt": "2020-11-16T10:21:46.926Z",
  "networkType": "ethereum",
  "devdoc": {
    "kind": "dev",
    "methods": {},
    "version": 1
  },
  "userdoc": {
    "kind": "user",
    "methods": {
      "bakeWaffleLayer(uint256)": {
        "notice": "Add a new layer to the waffleId provided if the waffle is owned by the sender and if last   layer has been customized*"
      },
      "concludeCompetition()": {
        "notice": "Concludes the competition and distributes the rewards to the owner   of the waffle with the most votes   Can be called by anyone past the competition end timestamp*"
      },
      "getCompetitionEndTimestamp()": {
        "notice": "Returns the timestamp at which the competition will end and concludeCompetition()   can be called by anyone to distribute the reward*"
      },
      "getProfileInfo(address)": {
        "notice": "Returns the profile data associated to an address*"
      },
      "getWaffleInfo(uint256)": {
        "notice": "Returns the data of the waffle associated to a waffle id*"
      },
      "voteWaffle(uint256)": {
        "notice": "Cast a vote for the waffleId provided from the sender account.   No more than MAX_VOTES_PER_ACCOUNT votes can be cast per account.*"
      }
    },
    "version": 1
  }
}